:04000000F0EF0DF020
:100F000040792430191202780018010204083200D6
:100F10000000000E1F6E000E1E6E000E216E000EF1
:100F2000206E000E1D6E000E1C6EBDEC0EF0000E4D
:100F30001F6E000E1E6E1F50800A800F050ED8B463
:100F40001E5CD8A001D001D002D01FD01ED0820ECE
:100F5000176EDD0EE82EFED7172EFCD700D0820EBE
:100F6000176EDD0EE82EFED7172EFCD700D01E4AD6
:100F70001F2A1F50800A800F050ED8B41E5CD8A00F
:100F800001D001D0E4D701D000D0C4EC0DF001C0F5
:100F90001CF002C01DF01D289D0ED8B41C18D8A44A
:100FA00001D001D002D026D025D01D501C10D8B4BD
:100FB00001D001D01FD01C5020261D50212221AE6F
:100FC00001D001D005D0000E216E3B0E206E12D054
:100FD0002150800A800F3C0ED8B4205CD8A001D0EC
:100FE00001D008D0000E216E000E206E03D002D07A
:100FF00001D000D020C009F021C00AF0000E0C6E14
:10100000000E0B6EDDEC08F05EEC0EF002500110ED
:10101000D8A401D001D0B9D7000E1F6E000E1E6EED
:101020001F50800A800F050ED8B41E5CD8A001D0D6
:1010300001D002D028D027D0820E176EDD0EE82E08
:10104000FED7172EFCD700D0820E176EDD0EE82ECD
:10105000FED7172EFCD700D020C001F021C002F02F
:1010600056EC0CF01A6E1E4A1F2A1F50800A800F81
:10107000050ED8B41E5CD8A001D001D0DDD703D0B6
:1010800002D083D782D7000E1D6E000E1C6E000E9C
:10109000216E000E206E00D0C4EC0DF001C01CF0DB
:1010A00002C01DF01D289D0ED8B41C18D8A401D074
:1010B00001D002D026D025D01D501C10D8B401D0AC
:1010C00001D01FD01C5020261D50212221AE01D05E
:1010D00001D005D0000E216E170E206E12D02150C7
:1010E000800A800F180ED8B4205CD8A001D001D09F
:1010F00008D0000E216E000E206E03D002D001D069
:1011000000D020C009F021C00AF0000E0C6E010EC4
:101110000B6EDDEC08F05EEC0EF002500110D8A46E
:1011200001D001D0B9D7000E1F6E000E1E6E1F50E9
:10113000800A800F050ED8B41E5CD8A001D001D063
:1011400002D02CD02BD0820E176EDD0EE82EFED7EB
:10115000172EFCD700D0820E176EDD0EE82EFED7BC
:10116000172EFCD700D020C001F021C002F056ECB1
:101170000CF01B6E176E000E196E17501E4A1F2AB8
:101180001F50800A800F050ED8B41E5CD8A001D075
:1011900001D0D9D703D002D07FD77ED7000E026E00
:1011A000180E016E176E010E036E175038EC0BF01F
:1011B0000F010F013F9B00D0120021D10A0E095CE4
:1011C000000E0A58D8B001D001D031D009C001F0CA
:1011D0000AC002F0000E046E000E036E18EC0EF052
:1011E0000E0EF66E0F0EF76E000EF86E0900F5CFBC
:1011F00001F00A00F5CF02F07CEC0EF0000E026E5A
:10120000000E016E000E046E010E036E18EC0EF05F
:101210000E0EF66E0F0EF76E000EF86E0900F5CF8B
:1012200001F00A00F5CF02F07CEC0EF0F9D00A0EC6
:10123000095C000E0A58D8A001D001D0F1D009C035
:1012400001F00AC002F0000E046E0A0E036E96EC66
:101250000DF001C00FF002C010F009C001F00AC08B
:1012600002F0000E046E0A0E036E60EC0DF001C079
:1012700011F002C012F00FC001F010C002F0000E19
:10128000046E000E036E18EC0EF00E0EF66E0F0ECE
:10129000F76E000EF86E0900F5CF01F00A00F5CFE9
:1012A00002F07CEC0EF011C001F012C002F0000E52
:1012B000046E010E036E18EC0EF00E0EF66E0F0E9D
:1012C000F76E000EF86E0900F5CF01F00A00F5CFB9
:1012D00002F07CEC0EF0A4D0A3D0A2D00A0E095CE0
:1012E000000E0A58D8B001D001D031D009C001F0A9
:1012F0000AC002F0000E046E020E036E18EC0EF02F
:101300000E0EF66E0F0EF76E000EF86E0900F5CF9A
:1013100001F00A00F5CF02F07CEC0EF0000E026E38
:10132000000E016E000E046E030E036E18EC0EF03C
:101330000E0EF66E0F0EF76E000EF86E0900F5CF6A
:1013400001F00A00F5CF02F07CEC0EF069D00A0E35
:10135000095C000E0A58D8A001D001D061D009C0A4
:1013600001F00AC002F0000E046E0A0E036E96EC45
:101370000DF001C013F002C014F009C001F00AC062
:1013800002F0000E046E0A0E036E60EC0DF001C058
:1013900015F002C016F013C001F014C002F0000EE8
:1013A000046E020E036E18EC0EF00E0EF66E0F0EAB
:1013B000F76E000EF86E0900F5CF01F00A00F5CFC8
:1013C00002F07CEC0EF015C001F016C002F0000E29
:1013D000046E030E036E18EC0EF00E0EF66E0F0E7A
:1013E000F76E000EF86E0900F5CF01F00A00F5CF98
:1013F00002F07CEC0EF014D013D012D011D00BC040
:101400000DF00CC00EF00E50000AD8B401D008D078
:101410000D50000AD8B4D2D6010AD8B45FD700D094
:10142000120059505810D8A401D001D002D0818E9A
:1014300000D00A0E095C000E0A58D8B001D001D0C5
:1014400031D009C001F00AC002F0000E046E020E95
:10145000036E18EC0EF00E0EF66E0F0EF76E000E09
:10146000F86E0900F5CF01F00A00F5CF02F07CEC30
:101470000EF0000E026E000E016E000E046E030EE2
:10148000036E18EC0EF00E0EF66E0F0EF76E000ED9
:10149000F86E0900F5CF01F00A00F5CF02F07CEC00
:1014A0000EF056D00A0E095C000E0A58D8A001D0E2
:1014B00001D04ED009C001F00AC002F0000E046E47
:1014C0000A0E036E96EC0DF001C00DF002C00EF096
:1014D00009C001F00AC002F0000E046E0A0E036E8D
:1014E00060EC0DF001C00FF002C010F00DC001F073
:1014F0000EC002F0000E046E020E036E18EC0EF029
:101500000E0EF66E0F0EF76E000EF86E0900F5CF98
:1015100001F00A00F5CF02F07CEC0EF00FC001F0F4
:1015200010C002F0000E046E030E036E18EC0EF0F5
:101530000E0EF66E0F0EF76E000EF86E0900F5CF68
:1015400001F00A00F5CF02F07CEC0EF001D000D0E3
:101550000A0E0B5C000E0C58D8B001D001D031D06F
:101560000BC001F00CC002F0000E046E000E036E02
:1015700018EC0EF00E0EF66E0F0EF76E000EF86EF3
:101580000900F5CF01F00A00F5CF02F07CEC0EF077
:10159000000E026E000E016E000E046E010E036E50
:1015A00018EC0EF00E0EF66E0F0EF76E000EF86EC3
:1015B0000900F5CF01F00A00F5CF02F07CEC0EF047
:1015C00056D00A0E0B5C000E0C58D8A001D001D0EA
:1015D0004ED00BC001F00CC002F0000E046E0A0EDB
:1015E000036E96EC0DF001C00DF002C00EF00BC0C2
:1015F00001F00CC002F0000E046E0A0E036E60ECE7
:101600000DF001C00FF002C010F00DC001F00EC0CF
:1016100002F0000E046E000E036E18EC0EF00E0EBB
:10162000F66E0F0EF76E000EF86E0900F5CF01F0A2
:101630000A00F5CF02F07CEC0EF00FC001F010C0F4
:1016400002F0000E046E010E036E18EC0EF00E0E8A
:10165000F66E0F0EF76E000EF86E0900F5CF01F072
:101660000A00F5CF02F07CEC0EF001D000D01200A1
:10167000046E000E066E045020EE02F00150D926D2
:101680000250DA22DF50046E5A0E045CD8B001D04A
:1016900001D09DD020EE01F00150D9260250DA226F
:1016A000DF50046E5A0E045CD8B001D001D08FD048
:1016B00020EE03F00150D9260250DA22240EDF6416
:1016C00001D001D002D083D082D020EE02F00150B0
:1016D000D9260250DA22DF50096E20EE01F00150C7
:1016E000D9260250DA22DF50086E0350D8B401D058
:1016F00001D002D0F29C00D0000E0F013FBB010EC2
:10170000076E076601D001D003D0BDEC0EF000D00B
:10171000000E0F013FBF010E056E0550D8B401D079
:1017200001D009D0000E0F0147BF010E066E0F0158
:101730000F013F9F00D0FC0E0F010F013F170F015B
:101740000F013F813ACF0AF03BCF0BF020EE03F0C0
:101750000150D9260250DA22DF500A6EFC0E0F012A
:101760000F013F170F010F013F810AC03AFF0BC065
:101770003BFF08C03AFF09C03BFF0550D8B401D079
:1017800001D015D00F010F013F8F0650D8B401D002
:1017900001D004D00F010F01478F00D00750D8B4FB
:1017A00001D001D00DD0BDEC0EF00AD009D00766F3
:1017B00001D001D005D00F010F013F9B01D000D017
:1017C0000350D8B401D001D002D0F28C00D0120066
:1017D000100E016001D001D005D001C001F0026AF5
:1017E00064D063D00F0E016401D001D00ED0200E62
:1017F000016001D001D009D0FA0E0124016E026A05
:10180000FF0E022252D051D050D01F0E016401D0E1
:1018100001D00ED0300E016001D001D009D0F40EFD
:101820000124016E026AFF0E02223FD03ED03DD05D
:101830002F0E016401D001D00ED0400E016001D006
:1018400001D009D0EE0E0124016E026AFF0E0222C1
:101850002CD02BD02AD03F0E016401D001D00ED065
:10186000500E016001D001D009D0E80E0124016EB4
:10187000026AFF0E022219D018D017D04F0E016451
:1018800001D001D012D0600E016001D001D00DD086
:10189000E20E0124016E026AFF0E022206D005D07C
:1018A00004D003D002D001D000D01200640E015C3D
:1018B000000E0258D8A001D001D003D0FF0E5CD09A
:1018C0005BD0036E000E066E0350000E056E000E18
:1018D000046E0550800A800F080ED8B4045CD8A0AE
:1018E00001D001D002D046D045D001AE01D001D008
:1018F00005D006500624066E068003D00650062446
:10190000066ED8900134016E0234026E06C003F0F8
:101910000F0E0316050E035CD8A001D001D009D02C
:101920000450070A0510D8B401D001D002D0030E2C
:10193000062606C003F0F00E0316500E035CD8A076
:1019400001D001D00AD00450070A0510D8B401D044
:1019500001D003D0300E062600D0044A052A0550D7
:10196000800A800F080ED8B4045CD8A001D001D042
:10197000BCD700D0065000D01200D388D38AD38CB5
:10198000000E296E000E286E000E2B6E000E2A6EC1
:10199000B3EC0EF0CCEC0EF03EEC0EF0BDEC0EF025
:1019A0000F010F013F95276E000E376E2750276EEF
:1019B000100E366E2750276E000E356E2750000E23
:1019C000026E340E016E276E010E036E275038EC46
:1019D0000BF00F010F013F8F0F010F013F9B00D054
:1019E000000E026E300E016E21EC0DF033C001F0DE
:1019F000E8EC0BF001C02CF002C02DF032C001F079
:101A0000E8EC0BF001C02EF002C02FF02CC009F062
:101A10002DC00AF02EC00BF02FC00CF011EC0AF014
:101A20005EEC0EF002500110D8A401D001D0D8D73E
:101A3000C7EC0EF089EC07F0D3D7D2D7D1D700EF9F
:101A400000F0FC0E0F010F013F170F010F013F8146
:101A50003ACF0FF03BCF10F03ACF11F03BCF12F05E
:101A6000FC0E0F010F013F170F010F013F813ACF0D
:101A700007F03BCF08F03ACF09F03BCF0AF009500E
:101A800020EE11F0DF6201D001D0DBD700D020EED4
:101A900003F00150D9260250DA220FC0DFFF20EEFA
:101AA00002F00150D9260250DA2212C0DFFF20EEE8
:101AB00001F00150D9260250DA2211C0DFFF1200D6
:101AC000000E076E000E066E04500310D8B401D04D
:101AD00001D027D0056E010E086E055005D0D890B4
:101AE00003360436082A00D004AE01D001D0F7D75F
:101AF00001D000D0D890063607360350015C045060
:101B00000258D8A001D001D006D00350015E045085
:101B1000025A068000D0D89004320332082EEAD749
:101B200000D006C001F007C002F0120004500310FC
:101B3000D8B401D001D023D0056E010E066E055039
:101B400005D0D89003360436062A00D004AE01D062
:101B500001D0F7D701D000D00350015C04500258E7
:101B6000D8A001D001D005D00350015E0450025A24
:101B700000D0D89004320332062EEED700D001C038
:101B800001F002C002F01200036E000E5A6E035004
:101B90005C44E846FC0B5C6E82380F0B030B5C1256
:101BA0000F0E5C6401D001D006D0FF0E026E9D0EB8
:101BB000016E15D014D05CC003F00F0E0316D89040
:101BC0000334046E056A0536380E0424D96E000EFF
:101BD0000520DA6EDECF01F0DDCF02F000D012007A
:101BE0005C6A5B6A5A6A596A586A260EF66E1D0E5E
:101BF000F76E000EF86E00EE60F010EE20F00900B7
:101C0000F5CFEEFFE550E150FAE1460EF66E1D0EFF
:101C1000F76E000EF86E00EE38F010EE20F00900BE
:101C2000F5CFEEFFE550E150FAE10001BDEF0CF019
:101C30000A0E015C000E0258D8A001D001D002D0DB
:101C40001CD01BD0000E0124F66E0F0E0220F76E82
:101C5000F86A000EF8220800F5CF81FFF00E80161A
:101C60000A0E0324F66E0F0E0420F76EF86A000EBB
:101C7000F8220800F550801200D01200CD86000E28
:101C80000F010F013F6F000E0F010F013E6F0F019B
:101C90000F013FAF01D001D00DD00F010F013FBBAD
:101CA00001D001D003D0BDEC0EF000D00F010F0128
:101CB0003F9F00D00F010F013F9B120082A601D071
:101CC00001D007D0000E026E000E016E14D013D0AA
:101CD00012D082B601D001D007D0000E026E010EE4
:101CE000016E09D008D007D0FF0E026EFE0E016E05
:101CF00002D001D000D01200000E046E000E036E60
:101D0000000E046E000E036E03D0034A042A00D0B6
:101D10000250041802E101500318D8A401D001D0E8
:101D2000F4D700D012000000FFFF01000000010006
:101D300000000000FFFFFFFF0000000001000000A6
:101D40000100FFFF00000000FFFF01000000010094
:101D500000000000FFFFFFFF000000000100000086
:101D60000100FFFF0000000E936E7F0E816EF00EEB
:101D70009216F00E801600D01200F29C550EA76E3F
:101D8000AA0EA76E0F010F013F8BF28C12007F0E7F
:101D9000816EF00E80161200340E941200D01200E4
:020000040001F9
:08FFF800BEF4F8FFFFFFFFF368
:00000001FF
