:0400000044EF12F0C7
:100F000040792430191202780018C0F9A4B09982EF
:100F100082F880980102040832000000100E0F5C75
:100F2000270E1058D8A001D001D002D0E8D1E7D1C7
:100F30000A0E0F5C000E1058D8B001D001D019D0A5
:100F40000FC001F010C002F0000E046E000E036E20
:100F5000C0EC11F0180EF66E0F0EF76E000EF86E64
:100F60000900F5CF01F00A00F5CF02F05DEC12F0B8
:100F7000C4D10A0E0F5C000E1058D8A001D001D0C9
:100F800059D0640E0F5C000E1058D8B001D001D0BB
:100F900051D00FC001F010C002F0000E046E0A0E16
:100FA000036E6AEC11F001C017F002C018F00FC018
:100FB00007F010C008F0000E0A6E0A0E096ED2EC9F
:100FC00010F007C019F008C01AF0000E126E000EE3
:100FD000116E17C001F018C002F0000E046E000E72
:100FE000036EC0EC11F0180EF66E0F0EF76E000EC9
:100FF000F86E0900F5CF01F00A00F5CF02F05DECC4
:1010000012F019C001F01AC002F0000E046E010EB9
:10101000036EC0EC11F0180EF66E0F0EF76E000E98
:10102000F86E0900F5CF01F00A00F5CF02F05DEC93
:1010300012F063D1640E0F5C000E1058D8A001D0DE
:1010400001D089D0E80E0F5C030E1058D8B001D043
:1010500001D081D00FC001F010C002F0000E046E6C
:101060000A0E036E6AEC11F001C01BF002C01CF006
:10107000000E046E640E036E0FC001F010C002F08B
:101080006AEC11F001C007F002C008F0000E0A6E11
:101090000A0E096ED2EC10F007C01DF008C01EF059
:1010A0000FC007F010C008F0000E0A6E640E096E43
:1010B000D2EC10F007C01FF008C020F0000E146E34
:1010C000000E136E1BC001F01CC002F0000E046E77
:1010D000000E036EC0EC11F0180EF66E0F0EF76ED8
:1010E000000EF86E0900F5CF01F00A00F5CF02F00E
:1010F0005DEC12F01DC001F01EC002F0000E046E87
:10110000010E036EC0EC11F0180EF66E0F0EF76EA6
:10111000000EF86E0900F5CF01F00A00F5CF02F0DD
:101120005DEC12F01FC001F020C002F0000E046E52
:10113000020E036EC0EC11F0180EF66E0F0EF76E75
:10114000000EF86E0900F5CF01F00A00F5CF02F0AD
:101150005DEC12F0D2D0E80E0F5C030E1058D8A050
:1011600001D001D0CAD0100E0F5C270E1058D8B095
:1011700001D001D0C2D00FC001F010C002F0000EAB
:10118000046E0A0E036E6AEC11F001C021F002C079
:1011900022F0030E046EE80E036E0FC001F010C0C3
:1011A00002F06AEC11F001C029F002C02AF0000E32
:1011B000046E640E036E29C001F02AC002F06AECCE
:1011C00011F001C007F002C008F0000E0A6E0A0E0E
:1011D000096ED2EC10F007C023F008C024F0030E13
:1011E000046EE80E036E0FC001F010C002F06AEC4E
:1011F00011F001C007F002C008F0000E0A6E640E84
:10120000096ED2EC10F007C025F008C026F00FC020
:1012100007F010C008F0030E0A6EE80E096ED2EC5B
:1012200010F007C027F008C028F0000E166E000E60
:10123000156E21C001F022C002F0000E046E000EF7
:10124000036EC0EC11F0180EF66E0F0EF76E000E66
:10125000F86E0900F5CF01F00A00F5CF02F05DEC61
:1012600012F023C001F024C002F0000E046E010E43
:10127000036EC0EC11F0180EF66E0F0EF76E000E36
:10128000F86E0900F5CF01F00A00F5CF02F05DEC31
:1012900012F025C001F026C002F0000E046E020E0E
:1012A000036EC0EC11F0180EF66E0F0EF76E000E06
:1012B000F86E0900F5CF01F00A00F5CF02F05DEC01
:1012C00012F027C001F028C002F0000E046E030ED9
:1012D000036EC0EC11F0180EF66E0F0EF76E000ED6
:1012E000F86E0900F5CF01F00A00F5CF02F05DECD1
:1012F00012F003D002D001D000D088EC12F012001E
:1013000029D10A0E0F5C000E1058D8B001D001D0C0
:1013100033D00FC001F010C002F0000E046E000EBA
:10132000036EC0EC11F0180EF66E0F0EF76E000E85
:10133000F86E0900F5CF01F00A00F5CF02F05DEC80
:1013400012F0000E026E000E016E000E046E010E11
:10135000036EC0EC11F0180EF66E0F0EF76E000E55
:10136000F86E0900F5CF01F00A00F5CF02F05DEC50
:1013700012F088EC12F0FFD00A0E0F5C000E10582D
:10138000D8A001D001D0F7D00FC001F010C002F0FA
:10139000000E046E0A0E036E6AEC11F001C015F027
:1013A00002C016F00FC007F010C008F0000E0A6E61
:1013B0000A0E096ED2EC10F007C017F008C018F042
:1013C00015C001F016C002F0000E046E000E036E90
:1013D000C0EC11F0180EF66E0F0EF76E000EF86EE0
:1013E0000900F5CF01F00A00F5CF02F05DEC12F034
:1013F00017C001F018C002F0000E046E010E036E5B
:10140000C0EC11F0180EF66E0F0EF76E000EF86EAF
:101410000900F5CF01F00A00F5CF02F05DEC12F003
:1014200088EC12F0A8D0A7D0A6D00A0E0F5C000E50
:101430001058D8B001D001D033D00FC001F010C087
:1014400002F0000E046E020E036EC0EC11F0180ED6
:10145000F66E0F0EF76E000EF86E0900F5CF01F074
:101460000A00F5CF02F05DEC12F0000E026E000EE5
:10147000016E000E046E030E036EC0EC11F0180E28
:10148000F66E0F0EF76E000EF86E0900F5CF01F044
:101490000A00F5CF02F05DEC12F088EC12F06BD090
:1014A0000A0E0F5C000E1058D8A001D001D063D0F6
:1014B0000FC001F010C002F0000E046E0A0E036EA1
:1014C0006AEC11F001C019F002C01AF00FC007F069
:1014D00010C008F0000E0A6E0A0E096ED2EC10F071
:1014E00007C01BF008C01CF019C001F01AC002F0C0
:1014F000000E046E020E036EC0EC11F0180EF66EB4
:101500000F0EF76E000EF86E0900F5CF01F00A001D
:10151000F5CF02F05DEC12F01BC001F01CC002F030
:10152000000E046E030E036EC0EC11F0180EF66E82
:101530000F0EF76E000EF86E0900F5CF01F00A00ED
:10154000F5CF02F05DEC12F088EC12F014D013D05D
:1015500012D011D011C013F012C014F01450000AB0
:10156000D8B401D008D01350000AD8B4CAD6010AA2
:10157000D8B45BD700D012000A0E0F5C000E1058D2
:10158000D8B001D001D033D00FC001F010C002F0AC
:10159000000E046E020E036EC0EC11F0180EF66E13
:1015A0000F0EF76E000EF86E0900F5CF01F00A007D
:1015B000F5CF02F05DEC12F0000E026E000E016E2F
:1015C000000E046E030E036EC0EC11F0180EF66EE2
:1015D0000F0EF76E000EF86E0900F5CF01F00A004D
:1015E000F5CF02F05DEC12F088EC12F058D00A0E44
:1015F0000F5C000E1058D8A001D001D050D00FC001
:1016000001F010C002F0000E046E0A0E036E6AECC8
:1016100011F001C013F002C014F00FC007F010C0A9
:1016200008F0000E0A6E0A0E096ED2EC10F007C028
:1016300015F008C016F013C001F014C002F0000E3F
:10164000046E020E036EC0EC11F0180EF66E0F0E53
:10165000F76E000EF86E0900F5CF01F00A00F5CF25
:1016600002F05DEC12F015C001F016C002F0000EA1
:10167000046E030E036EC0EC11F0180EF66E0F0E22
:10168000F76E000EF86E0900F5CF01F00A00F5CFF5
:1016900002F05DEC12F088EC12F001D000D00A0EDE
:1016A000115C000E1258D8B001D001D033D011C057
:1016B00001F012C002F0000E046E000E036EC0ECCA
:1016C00011F0180EF66E0F0EF76E000EF86E090090
:1016D000F5CF01F00A00F5CF02F05DEC12F0000E3C
:1016E000026E000E016E000E046E010E036EC0EC61
:1016F00011F0180EF66E0F0EF76E000EF86E090060
:10170000F5CF01F00A00F5CF02F05DEC12F088ECA5
:1017100012F058D00A0E115C000E1258D8A001D059
:1017200001D050D011C001F012C002F0000E046EC2
:101730000A0E036E6AEC11F001C013F002C014F03F
:1017400011C007F012C008F0000E0A6E0A0E096EF2
:10175000D2EC10F007C015F008C016F013C001F06D
:1017600014C002F0000E046E000E036EC0EC11F007
:10177000180EF66E0F0EF76E000EF86E0900F5CF1C
:1017800001F00A00F5CF02F05DEC12F015C001F097
:1017900016C002F0000E046E010E036EC0EC11F0D4
:1017A000180EF66E0F0EF76E000EF86E0900F5CFEC
:1017B00001F00A00F5CF02F05DEC12F088EC12F0B7
:1017C00001D000D01200000E356E000E346E34C011
:1017D0002EF035C02FF0000E316E000E306E000E70
:1017E000336E000E326E000E106E010E0F6E8EEC18
:1017F00007F0000E336E000E326E3350800A800FF9
:10180000050ED8B4325CD8A001D001D002D01FD0D0
:101810001ED0820E2C6EDD0EE82EFED72C2EFCD7AD
:1018200000D0820E2C6EDD0EE82EFED72C2EFCD7BB
:1018300000D0324A332A3350800A800F050ED8B4C4
:10184000325CD8A001D001D0E4D701D000D03CEC6C
:1018500011F001C030F002C031F031289D0ED8B433
:101860003018D8A401D001D003D0B6D0B5D04AD01A
:1018700031503010D8B401D001D044D0305034268B
:1018800031503522000E026E000E016E000E046E05
:10189000020E036E34C005F035C006F098EC11F06E
:1018A00001C034F002C035F02F50351802E12E503F
:1018B0003418D8B401D001D025D009D008D01BD01D
:1018C0001AD019D018D017D016D015D014D034C0D3
:1018D0002CF035C02DF02D50000AD8B401D00BD01B
:1018E0002C50000AD8B407D0010AD8B404D0030A97
:1018F000D8B401D000D034C02EF035C02FF002D0C3
:1019000001D000D026EC12F002500110D8A401D072
:1019100001D04FD0000E336E000E326E3350800A6D
:10192000800F050ED8B4325CD8A001D001D002D00F
:101930002ED02DD0820E2C6EDD0EE82EFED72C2E52
:10194000FCD700D0820E2C6EDD0EE82EFED72C2E9A
:10195000FCD700D0324A332A3350800A800F050E5C
:10196000D8B4325CD8A001D001D0E4D710D00FD0C9
:10197000EDEC0CF01DC034F01EC035F01AD0EDECCB
:101980000CF01DC034F01EC035F013D012D034C09E
:101990002CF035C02DF02D50000AD8B401D009D05C
:1019A0002C50000AD8B4E4D7010AD8B4E8D701D043
:1019B00000D026EC12F002500110D8A401D001D0C2
:1019C00046D73450020A3510D8A401D001D03FD7F1
:1019D00003D002D03CD73BD71200000E216E000E80
:1019E000206E000E276E000E266E000E256E000E75
:1019F000246E000E236E000E226E7EEC12F0000E9E
:101A0000216E000E206E2150800A800F050ED8B482
:101A1000205CD8A001D001D002D01FD01ED0820EF1
:101A20001F6EDD0EE82EFED71F2EFCD700D0820ED3
:101A30001F6EDD0EE82EFED71F2EFCD700D0204AE9
:101A4000212A2150800A800F050ED8B4205CD8A02E
:101A500001D001D0E4D701D000D03CEC11F001C09E
:101A600024F002C025F025289D0ED8B42418D8A44F
:101A700001D001D004D01D681E6885D01ED025502D
:101A80002410D8B401D001D018D0245026262550D7
:101A90002722000E026E000E016E000E046E3B0E39
:101AA000036E26C005F027C006F098EC11F001C0C7
:101AB00026F002C027F001D000D026C00FF027C0CA
:101AC00010F022C011F023C012F080EC09F026ECD7
:101AD00012F002500110D8A401D001D0BED788EC7A
:101AE00012F0820E1F6EDD0EE82EFED71F2EFCD7E1
:101AF00000D0820E1F6EDD0EE82EFED71F2EFCD703
:101B000000D023502210D8A401D001D014D026C078
:101B100001F027C002F0F3EC0FF02A6E000E236EE6
:101B2000010E226E000E256E000E246E000E276E32
:101B3000000E266E92D722042310D8A401D001D023
:101B40008CD726C001F027C002F0F3EC0FF02B6E0B
:101B50001F6E000E296E1F5004D07FD77ED77DD711
:101B60007CD7000E026E280E016E1F6E010E036EF2
:101B70001F50C4EC0DF00F010F013F9B000E1E6EB5
:101B8000020E1D6E00D01200046E000E066E045090
:101B900020EE02F00150D9260250DA22DF50046E06
:101BA0005A0E045CD8B001D001D09DD020EE01F0D7
:101BB0000150D9260250DA22DF50046E5A0E045C1E
:101BC000D8B001D001D08FD020EE03F00150D9263B
:101BD0000250DA22240EDF6401D001D002D083D07B
:101BE00082D020EE02F00150D9260250DA22DF50D6
:101BF000096E20EE01F00150D9260250DA22DF50A2
:101C0000086E0350D8B401D001D002D0F29C00D0AD
:101C1000000E0F013FBB010E076E076601D001D019
:101C200003D07EEC12F000D0000E0F013FBF010E7A
:101C3000056E0550D8B401D001D009D0000E0F01B7
:101C400047BF010E066E0F010F013F9F00D0FC0E33
:101C50000F010F013F170F010F013F813ACF0AF02B
:101C60003BCF0BF020EE03F00150D9260250DA22D0
:101C7000DF500A6EFC0E0F010F013F170F010F011D
:101C80003F810AC03AFF0BC03BFF08C03AFF09C0C2
:101C90003BFF0550D8B401D001D015D00F010F0182
:101CA0003F8F0650D8B401D001D004D00F010F01EE
:101CB000478F00D00750D8B401D001D00DD07EECB2
:101CC00012F00AD009D0076601D001D005D00F016B
:101CD0000F013F9B01D000D00350D8B401D001D0F8
:101CE00002D0F28C00D01200D388D38AD38C74EC4B
:101CF00012F08DEC12F006EC12F07EEC12F00F01F7
:101D00000F013F95000E026E160E016EF3EC0FF000
:101D1000486E000E026E2F0E016EF3EC0FF0476E50
:101D20003B6E000E466E3B503B6E120E4C6E3B50AF
:101D30003B6E000E4B6E3B503B6E000E4A6E3B50AE
:101D40003B6E030E016E3B503C6E010E026E3C502A
:101D500099EC10F03B6E010E016E3B503C6E010E93
:101D6000026E3C5008EC11F0000E026E450E016E42
:101D70003B6E010E036E3B50C4EC0DF0000E026E84
:101D8000490E016EFFEC0EF00F010F013F8F0F01A6
:101D90000F01478F0F010F013F9B00D0000E026E15
:101DA000410E016E5AEC10F044C001F085EC0FF0CA
:101DB00001C03DF002C03EF043C001F085EC0FF0E1
:101DC00001C03FF002C040F03DC00FF03EC010F037
:101DD0003FC011F040C012F0BCEC0AF026EC12F04B
:101DE00002500110D8A401D001D0D8D788EC12F04D
:101DF000E3EC0BF0D3D7D2D7D1D700EF00F020EE31
:101E000002F00150D9260250DA22DF50036E5A0E3A
:101E1000035CD8B001D001D077D020EE01F00150A2
:101E2000D9260250DA22DF50036E5A0E035CD8B076
:101E300001D001D069D020EE03F00150D926025024
:101E4000DA22240EDF6401D001D002D05DD05CD054
:101E500020EE02F00150D9260250DA22DF50076E40
:101E600020EE01F00150D9260250DA22DF50066E32
:101E7000000E0F013FBB010E046E046601D001D0BD
:101E800003D07EEC12F000D0000E0F0147BF010E10
:101E9000056E0550D8B401D001D004D00F010F0158
:101EA000479F00D0FC0E0F010F0147170F010F01D4
:101EB000478144CF08F045CF09F020EE03F00150F0
:101EC000D9260250DA22DF50086EFC0E0F010F01F6
:101ED00047170F010F01478108C044FF09C045FFA4
:101EE00006C044FF07C045FF0550D8B401D001D05B
:101EF00003D00F010F01478F046601D001D004D039
:101F00000F010F013F9B00D01200100E016001D0A5
:101F100001D005D001C001F0026A64D063D00F0E79
:101F2000016401D001D00ED0200E016001D001D09B
:101F300009D0FA0E0124016E026AFF0E022252D06D
:101F400051D050D01F0E016401D001D00ED0300E00
:101F5000016001D001D009D0F40E0124016E026AA3
:101F6000FF0E02223FD03ED03DD02F0E016401D0A3
:101F700001D00ED0400E016001D001D009D0EE0E8C
:101F80000124016E026AFF0E02222CD02BD02AD02F
:101F90003F0E016401D001D00ED0500E016001D07F
:101FA00001D009D0E80E0124016E026AFF0E022260
:101FB00019D018D017D04F0E016401D001D012D023
:101FC000600E016001D001D00DD0E20E0124016E3F
:101FD000026AFF0E022206D005D004D003D002D040
:101FE00001D000D01200640E015C000E0258D8A08F
:101FF00001D001D003D0FF0E5CD05BD0036E000E89
:10200000066E0350000E056E000E046E0550800A29
:10201000800F080ED8B4045CD8A001D001D002D043
:1020200046D045D001AE01D001D005D006500624DF
:10203000066E068003D006500624066ED890013442
:10204000016E0234026E06C003F00F0E0316050E79
:10205000035CD8A001D001D009D00450070A0510B4
:10206000D8B401D001D002D0030E062606C003F07A
:10207000F00E0316500E035CD8A001D001D00AD098
:102080000450070A0510D8B401D001D003D0300E97
:10209000062600D0044A052A0550800A800F080E43
:1020A000D8B4045CD8A001D001D0BCD700D0065071
:1020B00000D01200FC0E0F010F013F170F010F019E
:1020C0003F813ACF0FF03BCF10F03ACF11F03BCF2A
:1020D00012F0FC0E0F010F013F170F010F013F819E
:1020E0003ACF07F03BCF08F03ACF09F03BCF0AF0E8
:1020F000095020EE11F0DF6201D001D0DBD700D013
:1021000020EE03F00150D9260250DA220FC0DFFF83
:1021100020EE02F00150D9260250DA2212C0DFFF71
:1021200020EE01F00150D9260250DA2211C0DFFF63
:102130001200000E0F0147BF010E046E0450D8B408
:1021400001D001D013D00250D8B401D001D005D0B5
:102150000F010F01479F0AD000D00F010F013FB9B7
:1021600001D001D0FAD702D001D000D001C003F0D5
:10217000034603460F010F0147510318C30B031811
:102180000F010F01476F0450D8B401D001D009D01E
:102190000250D8B401D001D004D00F010F01478FF5
:1021A00000D01200000E0D6E000E0C6E0A500910C9
:1021B000D8B401D001D027D00B6E010E0E6E0B509B
:1021C00005D0D89009360A360E2A00D00AAE01D0C2
:1021D00001D0F7D701D000D0D8900C360D36095079
:1021E000075C0A500858D8A001D001D006D0095089
:1021F000075E0A50085A0C8000D0D8900A32093283
:102200000E2EEAD700D00CC007F00DC008F0120067
:10221000000E0F0147BF010E036E0350D8B401D06A
:1022200001D012D00250D8B401D001D005D00F0196
:102230000F01479F09D000D00F010F013FB901D016
:1022400001D0FAD701D000D001B004D00F010F01A6
:10225000479D03D00F010F01478D0350D8B401D023
:1022600001D009D00250D8B401D001D004D00F0160
:102270000F01478F00D01200036E000E516E035005
:102280005344E846FC0B536E82380F0B030B53127A
:102290000F0E536401D001D006D0FF0E026E9D0ECA
:1022A000016E17D016D053C003F00F0E0316D8904E
:1022B0000334046E056A05360001800E0424D96ECD
:1022C0000001000E0520DA6EDECF01F0DDCF02F056
:1022D00000D0120004500310D8B401D001D023D094
:1022E000056E010E066E055005D0D89003360436F3
:1022F000062A00D004AE01D001D0F7D701D000D01B
:102300000350015C04500258D8A001D001D005D080
:102310000350015E0450025A00D0D89004320332B8
:10232000062EEED700D001C001F002C002F012006C
:102330000650800A076E0150055C0250800A07585B
:10234000D8B001D001D006D003C001F004C002F023
:1023500016D011D00450800A076E0550035C065059
:10236000800A0758D8B001D001D005D001C001F0D3
:1023700002C002F004D005C001F006C002F0120055
:102380000A0E015C000E0258D8A001D001D002D084
:102390001CD01BD00A0E0124F66E0F0E0220F76E21
:1023A000F86A000EF8220800F5CF81FFF00E8016C3
:1023B000140E0324F66E0F0E0420F76EF86A000E5A
:1023C000F8220800F550801200D012000000FFFF34
:1023D00001000000010000000000FFFFFFFF0000FF
:1023E0000000010000000100FFFF00000000FFFFEF
:1023F00001000000010000000000FFFFFFFF0000DF
:102400000000010000000100FFFF0000CD86000E6B
:102410000F010F013F6F000E0F010F013E6F0F0103
:102420000F013FAF01D001D00DD00F010F013FBB15
:1024300001D001D003D07EEC12F000D00F010F01CB
:102440003F9F00D00F010F013F9B120082A601D0D9
:1024500001D007D0000E026E000E016E14D013D012
:1024600012D082B601D001D007D0000E026E010E4C
:10247000016E09D008D007D0FF0E026EFE0E016E6D
:1024800002D001D000D0120000EE4DF0070EEE6A2F
:10249000E806FDE1CC0EF66E230EF76E000EF86E28
:1024A00000EE60F010EE40F00900F5CFEEFFE550D1
:1024B000E150FAE1000174EF0EF0000E046E000E20
:1024C000036E000E046E000E036E03D0034A042A4E
:1024D00000D00250041802E101500318D8A401D022
:1024E00001D0F4D700D01200000E936E7F0E816EE3
:1024F000F00E9216F00E801600D01200F29C550ECF
:10250000A76EAA0EA76E0F010F013F8BF28C12006F
:102510007F0E8112F00E80161200340E941200D03D
:022520001200A7
:020000040001F9
:08FFF800BEF4F8FFFFFFFFF368
:00000001FF
