:040000004CEF00F0D1
:10000800FACF01F0FBCF02F0E9CF03F0EACF04F01A
:10001800E1CF05F0E2CF06F0D9CF07F0DACF08F04C
:10002800F3CF09F0F4CF0AF0F6CF0BF0F7CF0CF0CE
:10003800F8CF0DF0F5CF0EF0F2AA01D001D00BD019
:10004800F2A401D001D007D0000E466E000E456E16
:10005800F29401D000D00EC0F5FF0DC0F8FF0CC01F
:10006800F7FF0BC0F6FF0AC0F4FF09C0F3FF08C092
:10007800DAFF07C0D9FF06C0E2FF05C0E1FF04C0F0
:10008800EAFF03C0E9FF02C0FBFF01C0FAFF11004D
:04009800A8EF0EF0CF
:100F00004079243019120278001808040201050003
:100F1000000046504510D8B401D001D02CD13CD1AE
:100F20003BD129D10A0E175C000E1858D8B001D059
:100F300001D033D017C00FF018C010F0000E126EA1
:100F4000000E116E22EC0EF00E0EF66E0F0EF76E06
:100F5000000EF86E0900F5CF0FF00A00F5CF10F083
:100F600037EC0DF0000E106E000E0F6E000E126EBC
:100F7000010E116E22EC0EF00E0EF66E0F0EF76ED5
:100F8000000EF86E0900F5CF0FF00A00F5CF10F053
:100F900037EC0DF0F3EC0EF0FFD00A0E175C000EEC
:100FA0001858D8A001D001D0F7D017C00FF018C042
:100FB00010F0000E126E0A0E116EA3EC0DF00FC0B1
:100FC0001DF010C01EF017C00FF018C010F0000E7A
:100FD000126E0A0E116E6DEC0DF00FC01FF010C0F6
:100FE00020F01DC00FF01EC010F0000E126E000E9B
:100FF000116E22EC0EF00E0EF66E0F0EF76E000E56
:10100000F86E0900F5CF0FF00A00F5CF10F037ECBD
:101010000DF01FC00FF020C010F0000E126E010E78
:10102000116E22EC0EF00E0EF66E0F0EF76E000E25
:10103000F86E0900F5CF0FF00A00F5CF10F037EC8D
:101040000DF0F3EC0EF0A8D0A7D0A6D00A0E175CD6
:10105000000E1858D8B001D001D033D017C00FF00F
:1010600018C010F0000E126E020E116E22EC0EF07F
:101070000E0EF66E0F0EF76E000EF86E0900F5CF2D
:101080000FF00A00F5CF10F037EC0DF0000E106EE7
:10109000000E0F6E000E126E030E116E22EC0EF09B
:1010A0000E0EF66E0F0EF76E000EF86E0900F5CFFD
:1010B0000FF00A00F5CF10F037EC0DF0F3EC0EF066
:1010C0006BD00A0E175C000E1858D8A001D001D0C2
:1010D00063D017C00FF018C010F0000E126E0A0E89
:1010E000116EA3EC0DF00FC021F010C022F017C05C
:1010F0000FF018C010F0000E126E0A0E116E6DEC9B
:101100000DF00FC023F010C024F021C00FF022C05A
:1011100010F0000E126E020E116E22EC0EF00E0E8A
:10112000F66E0F0EF76E000EF86E0900F5CF0FF099
:101130000A00F5CF10F037EC0DF023C00FF024C0FB
:1011400010F0000E126E030E116E22EC0EF00E0E59
:10115000F66E0F0EF76E000EF86E0900F5CF0FF069
:101160000A00F5CF10F037EC0DF0F3EC0EF014D0D0
:1011700013D012D011D019C01BF01AC01CF01C5093
:10118000000AD8B401D008D01B50000AD8B4CAD67F
:10119000010AD8B45BD700D0120046504510D8B42D
:1011A00001D001D002D027D126D10A0E175C000E43
:1011B0001858D8B001D001D033D017C00FF018C0E4
:1011C00010F0000E126E020E116E22EC0EF00E0EDA
:1011D000F66E0F0EF76E000EF86E0900F5CF0FF0E9
:1011E0000A00F5CF10F037EC0DF0000E106E000E77
:1011F0000F6E000E126E030E116E22EC0EF00E0E2C
:10120000F66E0F0EF76E000EF86E0900F5CF0FF0B8
:101210000A00F5CF10F037EC0DF0F3EC0EF058D0DB
:101220000A0E175C000E1858D8A001D001D050D07B
:1012300017C00FF018C010F0000E126E0A0E116EDB
:10124000A3EC0DF00FC01BF010C01CF017C00FF086
:1012500018C010F0000E126E0A0E116E6DEC0DF03B
:101260000FC01DF010C01EF01BC00FF01CC010F00E
:10127000000E126E020E116E22EC0EF00E0EF66EC5
:101280000F0EF76E000EF86E0900F5CF0FF00A0092
:10129000F5CF10F037EC0DF01DC00FF01EC010F0B0
:1012A000000E126E030E116E22EC0EF00E0EF66E94
:1012B0000F0EF76E000EF86E0900F5CF0FF00A0062
:1012C000F5CF10F037EC0DF0F3EC0EF001D000D0BC
:1012D0000A0E195C000E1A58D8B001D001D033D0D4
:1012E00019C00FF01AC010F0000E126E000E116E31
:1012F00022EC0EF00E0EF66E0F0EF76E000EF86E6C
:101300000900F5CF0FF00A00F5CF10F037EC0DF023
:10131000000E106E000E0F6E000E126E010E116E9A
:1013200022EC0EF00E0EF66E0F0EF76E000EF86E3B
:101330000900F5CF0FF00A00F5CF10F037EC0DF0F3
:10134000F3EC0EF058D00A0E195C000E1A58D8A013
:1013500001D001D050D019C00FF01AC010F0000E0B
:10136000126E0A0E116EA3EC0DF00FC01BF010C030
:101370001CF019C00FF01AC010F0000E126E0A0E09
:10138000116E6DEC0DF00FC01DF010C01EF01BC0F3
:101390000FF01CC010F0000E126E000E116E22EC49
:1013A0000EF00E0EF66E0F0EF76E000EF86E0900C0
:1013B000F5CF0FF00A00F5CF10F037EC0DF01DC09F
:1013C0000FF01EC010F0000E126E010E116E22EC16
:1013D0000EF00E0EF66E0F0EF76E000EF86E090090
:1013E000F5CF0FF00A00F5CF10F037EC0DF0F3EC6D
:1013F0000EF001D000D01200000E2F6E000E2E6EE7
:10140000000E2D6E000E2C6E000E2B6E000E2A6E3E
:10141000000E296E000E286ED8EC0EF0000E2F6E16
:10142000000E2E6E2F50800A800F050ED8B42E5C51
:10143000D8A001D001D002D00FD00ED02E4A2F2A32
:101440002F50800A800F050ED8B42E5CD8A001D092
:1014500001D0F4D701D000D0D1EC0DF00FC02AF0AC
:1014600010C02BF02B289D0ED8B42A18D8A401D078
:1014700001D004D02568266892D01ED02B502A10A7
:10148000D8B401D001D018D02A502C262B502D22B0
:10149000000E106E000E0F6E000E126E3B0E116EDF
:1014A0002CC013F02DC014F0FAEC0DF00FC02CF08E
:1014B00010C02DF001D000D02CC017F02DC018F0B6
:1014C00028C019F029C01AF089EC07F08AEC0EF058
:1014D00010500F10D8A401D001D0BED7F3EC0EF0FD
:1014E000000E2F6E000E2E6E2F50800A800F050EFC
:1014F000D8B42E5CD8A001D001D002D00ED00DD02F
:101500002E4A2F2A2F50800A800F050ED8B42E5C49
:10151000D8A001D001D0F4D700D029502810D8A4E9
:1015200001D001D014D02CC00FF02DC010F0EEEC83
:101530000BF0326E000E296E010E286E000E2B6E1F
:10154000000E2A6E000E2D6E000E2C6E85D728041C
:101550002910D8A401D001D07FD72CC00FF02DC006
:1015600010F0EEEC0BF0336E276E000E316E27504C
:1015700004D072D771D770D76FD7000E106E300EAF
:101580000F6E276E010E116E2750D0EC0AF00F017E
:101590000F013F9B000E266E020E256E00D012003A
:1015A000126E000E146E125020EE02F00F50D9266B
:1015B0001050DA22DF50126E5A0E125CD8B001D0F1
:1015C00001D09DD020EE01F00F50D9261050DA2224
:1015D000DF50126E5A0E125CD8B001D001D08FD0FD
:1015E00020EE03F00F50D9261050DA22240EDF64CB
:1015F00001D001D002D083D082D020EE02F00F5073
:10160000D9261050DA22DF50176E20EE01F00F506D
:10161000D9261050DA22DF50166E1150D8B401D0FE
:1016200001D002D0F29C00D0000E0F013FBB010E92
:10163000156E156601D001D003D0D8EC0EF000D0A5
:10164000000E0F013FBF010E136E1350D8B401D02E
:1016500001D009D0000E0F0147BF010E146E0F011B
:101660000F013F9F00D0FC0E0F010F013F170F012C
:101670000F013F813ACF18F03BCF19F020EE03F075
:101680000F50D9261050DA22DF50186EFC0E0F01D1
:101690000F013F170F010F013F8118C03AFF19C01A
:1016A0003BFF16C03AFF17C03BFF1350D8B401D020
:1016B00001D015D00F010F013F8F1450D8B401D0C5
:1016C00001D004D00F010F01478F00D01550D8B4BE
:1016D00001D001D00DD0D8EC0EF00AD009D015669B
:1016E00001D001D005D00F010F013F9B01D000D0E8
:1016F0001150D8B401D001D002D0F28C00D0120029
:10170000100E0F6001D001D005D00FC00FF0106A8D
:1017100064D063D00F0E0F6401D001D00ED0200E24
:101720000F6001D001D009D0FA0E0F240F6E106A9D
:10173000FF0E102252D051D050D01F0E0F6401D096
:1017400001D00ED0300E0F6001D001D009D0F40EC0
:101750000F240F6E106AFF0E10223FD03ED03DD0F6
:101760002F0E0F6401D001D00ED0400E0F6001D0BB
:1017700001D009D0EE0E0F240F6E106AFF0E10225A
:101780002CD02BD02AD03F0E0F6401D001D00ED028
:10179000500E0F6001D001D009D0E80E0F240F6E5B
:1017A000106AFF0E102219D018D017D04F0E0F64F8
:1017B00001D001D012D0600E0F6001D001D00DD049
:1017C000E20E0F240F6E106AFF0E102206D005D015
:1017D00004D003D002D001D000D01200640E0F5C00
:1017E000000E1058D8A001D001D003D0FF0E5CD05D
:1017F0005BD0116E000E146E1150000E136E000EB1
:10180000126E1350800A800F080ED8B4125CD8A054
:1018100001D001D002D046D045D00FAE01D001D0CA
:1018200005D014501424146E148003D014501424C2
:10183000146ED8900F340F6E1034106E14C011F067
:101840000F0E1116050E115CD8A001D001D009D0E1
:101850001250070A1310D8B401D001D002D0030EE1
:10186000142614C011F0F00E1116500E115CD8A001
:1018700001D001D00AD01250070A1310D8B401D0F9
:1018800001D003D0300E142600D0124A132A135070
:10189000800A800F080ED8B4125CD8A001D001D005
:1018A000BCD700D0145000D01200D08EF28EF29C23
:1018B000F28AF184C1EC0EF0E2EC0EF0CEEC0EF008
:1018C000F8EC0EF0000E1B6E3D0E1A6E000E1D6E33
:1018D000000E1C6E000E1F6E000E1E6EB9EC0CF09A
:1018E0008D80000E106E640E0F6E37EC0DF08D9033
:1018F0008D82000E106E640E0F6E37EC0DF08D921F
:101900008D84000E106E640E0F6E37EC0DF000D05B
:10191000000E226E410E216EEBEC0EF044C00FF073
:1019200080EC0BF00FC039F010C03AF043C00FF05C
:1019300080EC0BF00FC03BF010C03CF039C017F04A
:101940003AC018F03BC019F03CC01AF0CDEC08F0DA
:101950008AEC0EF010500F10D8A401D001D0D8D7C7
:10196000F3EC0EF0FCEC09F0D3D7D2D7D1D74CEF83
:1019700000F06AEC0EF0D8EC0EF00F010F013F956D
:101980001CC00FF01DC010F0EEEC0BF0206E20EE2E
:1019900003F01A50D9261B50DA2220C0DFFF1EC0E8
:1019A0000FF01FC010F0EEEC0BF0206E20EE02F0F6
:1019B0001A50D9261B50DA2220C0DFFF20EE01F09A
:1019C0001A50D9261B50DA22000EDF6E1AC00FF013
:1019D0001BC010F0206E010E116E2050D0EC0AF0EA
:1019E0000F010F013F8F0F010F013F9B00D012002D
:1019F000FC0E0F010F013F170F010F013F813ACF7E
:101A00001DF03BCF1EF03ACF1FF03BCF20F0FC0E75
:101A10000F010F013F170F010F013F813ACF15F062
:101A20003BCF16F03ACF17F03BCF18F0175020EE0F
:101A30001FF0DF6201D001D0DBD700D020EE03F031
:101A40000F50D9261050DA221DC0DFFF20EE02F021
:101A50000F50D9261050DA2220C0DFFF20EE01F00F
:101A60000F50D9261050DA221FC0DFFF1200000EDF
:101A7000466E010E456EA10E0F5C0F0E1058D8A0D9
:101A800001D001D002D028D027D00FC011F010C053
:101A900012F0113A123AF00E121611500F0B1212E8
:101AA000F00E1116111E121E114A122A11C015F045
:101AB00012C016F015C013F01650146E14C0D7FFE4
:101AC00013C0D6FFD58E01D000D046504510D8A403
:101AD00001D001D0FAD7D59E1200000E156E000E6F
:101AE000146E12501110D8B401D001D027D0136E4B
:101AF000010E166E135005D0D89011361236162AE4
:101B000000D012AE01D001D0F7D701D000D0D890CC
:101B10001436153611500F5C12501058D8A001D051
:101B200001D006D011500F5E1250105A148000D010
:101B3000D89012321132162EEAD700D014C00FF00E
:101B400015C010F0120012501110D8B401D001D0FD
:101B500023D0136E010E146E135005D0D890113699
:101B60001236142A00D012AE01D001D0F7D701D01E
:101B700000D011500F5C12501058D8A001D001D0E5
:101B800005D011500F5E1250105A00D0D89012326A
:101B90001132142EEED700D00FC00FF010C010F08D
:101BA0001200116E000E496E11504B44E846FC0BBA
:101BB0004B6E8150300B4B1206D0FF0E106E9D0EF7
:101BC0000F6E17D016D04BC011F00F0E1116D89013
:101BD0001134126E136A13360001800E1224D96E6E
:101BE0000001000E1320DA6EDECF0FF0DDCF10F013
:101BF00000D012001450800A156E0F50135C105064
:101C0000800A1558D8B001D001D006D011C00FF00D
:101C100012C010F016D011D01250800A156E135059
:101C2000115C1450800A1558D8B001D001D005D0ED
:101C30000FC00FF010C010F004D013C00FF014C08C
:101C400010F012000A0E0F5C000E1058D8A001D040
:101C500001D002D01ED01DD0F00E8916800E8C1639
:101C6000000E0F24F66E0F0E1020F76EF86A000EAD
:101C7000F8220800F5508C120A0E1124F66E0F0E91
:101C80001220F76EF86A000EF8220800F550801254
:101C900000D012000000FFFF010000000100000062
:101CA0000000FFFFFFFF0000000001000000010036
:101CB000FFFF00000000FFFF010000000100000026
:101CC0000000FFFFFFFF0000000001000000010016
:101CD000FFFF0000CD86000E0F010F013F6F000EC9
:101CE0000F010F013E6F0F010F013FAF01D001D077
:101CF0000DD00F010F013FBB01D001D003D0D8ECB4
:101D00000EF000D00F010F013F9F00D00F010F0117
:101D10003F9B120081A601D001D007D0000E106EAB
:101D2000000E0F6E14D013D012D081B601D001D0A6
:101D300007D0000E106E010E0F6E09D008D007D02C
:101D4000FF0E106EFE0E0F6E02D001D000D01200FA
:101D500000EE45F0070EEE6AE806FDE1940EF66E21
:101D60001C0EF76E000EF86E00EE60F010EE40F004
:101D70000900F5CFEEFFE550E150FAE1000155EF23
:101D80000CF0969096929694929A939293948D904A
:101D90008D928D94899A8A828A841200000E956EA3
:101DA0007F0E8C6EF00E9216F00E891600D0120087
:101DB000F29C550EA76EAA0EA76E0F010F013F8B66
:101DC000F28C1200D59ED59CD59AD598D596D58003
:101DD000D582D584120021C00FF022C010F0F8EC9B
:101DE0000CF000D012007F0E8112F00E801612004F
:081DF000380E931200D012001E
:020000040001F9
:08FFF800BEF7FCFFFFFBFFFB5D
:00000001FF
