:0400000051EF00F0CC
:10000800FACF12F0FBCF13F0E9CF14F0E9EF16F0B6
:10001800D8CF01F0E8CF02F0E0CF03F0FACF04F038
:10002800FBCF05F0E9CF06F0EACF07F0E1CF08F003
:10003800E2CF09F0D9CF0AF0DACF0BF0F3CF0CF00A
:10004800F4CF0DF0F6CF0EF0F7CF0FF0F8CF10F099
:10005800F5CF11F011C0F5FF10C0F8FF0FC0F7FF82
:100068000EC0F6FF0DC0F4FF0CC0F3FF0BC0DAFFA3
:100078000AC0D9FF09C0E2FF08C0E1FF07C0EAFFD4
:1000880006C0E9FF05C0FBFF04C0FAFF03C0E0FF9C
:0E00980002C0E8FF01C0D8FF10001BEF1DF0F2
:100F00004079243019120278001808040201050003
:100F100002000000000E00010001B96F000E000188
:100F2000B86F33D20A0E00010001AA5D000E000165
:100F3000AB59D8B001D001D06ED0AAC0A3F0ABC0DD
:100F4000A4F0000E00010001A66F000E0001A56FC5
:100F50000001B6EC1FF0000E00010001B96F000E99
:100F60000001B86F00010001B951800A800F320EF4
:100F7000D8B4B85DD8A001D001D002D012D011D021
:100F800000010001B84BB92B00010001B951800AE2
:100F9000800F320ED8B4B85DD8A001D001D0F0D700
:100FA00000D0000E00010001A46F000E0001A36F2D
:100FB000000E00010001A66F010E0001A56F0001E7
:100FC000B6EC1FF0000E00010001B96F000E000129
:100FD000B86F00010001B951800A800F320ED8B4F9
:100FE000B85DD8A001D001D002D012D011D000013C
:100FF0000001B84BB92B00010001B951800A800FE4
:10100000320ED8B4B85DD8A001D001D0F0D700D04E
:101010003AEC21F0CFD10A0E00010001AA5D000ECA
:101020000001AB59D8A001D001D0C4D1AAC0A3F00F
:10103000ABC0A4F0000E00010001A66F0A0E000173
:10104000A56F0001B7EC1DF00001A3C0B0F00001D6
:10105000A4C0B1F0AAC0A3F0ABC0A4F0000E000180
:101060000001A66F0A0E0001A56F00011CEC1CF028
:101070000001A3C0B2F00001A4C0B3F0B0C0A3F05F
:10108000B1C0A4F0000E00010001A66F000E000127
:10109000A56F0001B6EC1FF0000E00010001B96F52
:1010A000000E0001B86F00010001B951800A800FE5
:1010B000320ED8B4B85DD8A001D001D002D012D081
:1010C00011D000010001B84BB92B00010001B9514A
:1010D000800A800F320ED8B4B85DD8A001D001D0FC
:1010E000F0D700D0B2C0A3F0B3C0A4F0000E00014E
:1010F0000001A66F010E0001A56F0001B6EC1FF004
:10110000000E00010001B96F000E0001B86F000170
:101110000001B951800A800F320ED8B4B85DD8A052
:1011200001D001D002D012D011D000010001B84B83
:10113000B92B00010001B951800A800F320ED8B4DA
:10114000B85DD8A001D001D0F0D700D03AEC21F0A2
:1011500031D130D12FD10A0E00010001AA5D000E5D
:101160000001AB59D8B001D001D06ED0AAC0A3F015
:10117000ABC0A4F0000E00010001A66F020E00013A
:10118000A56F0001B6EC1FF0000E00010001B96F61
:10119000000E0001B86F00010001B951800A800FF4
:1011A000320ED8B4B85DD8A001D001D002D012D090
:1011B00011D000010001B84BB92B00010001B95159
:1011C000800A800F320ED8B4B85DD8A001D001D00B
:1011D000F0D700D0000E00010001A46F000E000146
:1011E000A36F000E00010001A66F030E0001A56FA2
:1011F0000001B6EC1FF0000E00010001B96F000EF7
:101200000001B86F00010001B951800A800F320E51
:10121000D8B4B85DD8A001D001D002D012D011D07E
:1012200000010001B84BB92B00010001B951800A3F
:10123000800F320ED8B4B85DD8A001D001D0F0D75D
:1012400000D03AEC21F0B6D00A0E00010001AA5DF0
:10125000000E0001AB59D8A001D001D0ABD0AAC07C
:10126000A3F0ABC0A4F0000E00010001A66F0A0EAF
:101270000001A56F0001B7EC1DF00001A3C0B4F0A0
:101280000001A4C0B5F0AAC0A3F0ABC0A4F0000E4A
:1012900000010001A66F0A0E0001A56F00011CEC01
:1012A0001CF00001A3C0B6F00001A4C0B7F0B4C0A8
:1012B000A3F0B5C0A4F0000E00010001A66F020E5D
:1012C0000001A56F0001B6EC1FF0000E0001000147
:1012D000B96F000E0001B86F00010001B951800A1A
:1012E000800F320ED8B4B85DD8A001D001D002D0A2
:1012F00012D011D000010001B84BB92B0001000140
:10130000B951800A800F320ED8B4B85DD8A001D090
:1013100001D0F0D700D0B6C0A3F0B7C0A4F0000E43
:1013200000010001A66F030E0001A56F0001B6ECDD
:101330001FF0000E00010001B96F000E0001B86F30
:1013400000010001B951800A800F320ED8B4B85D97
:10135000D8A001D001D002D012D011D000010001DC
:10136000B84BB92B00010001B951800A800F320E31
:10137000D8B4B85DD8A001D001D0F0D700D03AECF5
:1013800021F018D017D016D015D00001ACC0AEF0A7
:101390000001ADC0AFF00001AF51000AD8B401D0D8
:1013A00009D00001AE51000AD8B4BCD5010AD8B4A6
:1013B000D2D600D01200000E00010001AE6F000E68
:1013C0000001AD6F2F502E10D8A401D001D019D13B
:1013D000FF0E3B240001A96FFF0E3C200001AA6F05
:1013E00026500001A95D27500001AA59D8A001D0BC
:1013F00001D0F9D0FF0E39240001A96FFF0E3A2069
:101400000001AA6F30500001A95D31500001AA59B6
:10141000D8A001D001D0F5D030C0A9F031C0AAF0D9
:101420000001D890A937AA370001D890A937AA3768
:101430000101000E0001A925D96E0101010E000174
:10144000AA21DA6EDF5000010001AB6F30C0A9F0B5
:1014500031C0AAF00001D890A937AA370001D8906E
:10146000A937AA37010E0001A927000EAA230101FE
:10147000000E0001A925D96E0101010E0001AA216B
:10148000DA6EDF50206E80EC1FF020C0AFF021C07C
:10149000B0F030C0A9F031C0AAF00001D890A9374F
:1014A000AA370001D890A937AA37020E0001A92750
:1014B000000EAA230101000E0001A925D96E010129
:1014C000010E0001AA21DA6EDF5000010001AC6FAD
:1014D00030C0A9F031C0AAF00001D890A937AA37CE
:1014E0000001D890A937AA37030E0001A927000EE2
:1014F000AA230101000E0001A925D96E0101010EE8
:101500000001AA21DA6EDF50206E80EC1FF020C0AF
:10151000B1F021C0B2F000010001AF5100010001A3
:10152000B15D00010001B05100010001B259D8A025
:1015300001D001D005D0AFC0ADF0B0C0AEF016D034
:1015400000010001AF5100010001B15D0001000187
:10155000B05100010001B259D8B001D001D006D07D
:10156000B1C0ADF0B2C0AEF001D000D0304A312AE7
:10157000FF0E39240001A96FFF0E3A200001AA6F67
:1015800030500001A95D31500001AA59D8B001D0F6
:1015900001D007D0264A272A000E316E000E306E89
:1015A00000D00001A96F000E00010001A66F00012C
:1015B000A951ABC0A7F00001CAEC20F00001A96F4F
:1015C000010E00010001A66F0001A951ACC0A7F0F7
:1015D0000001CAEC20F0ADC020F0AEC021F0CBEC91
:1015E0001CF00FD00ED0000E2F6E010E2E6E000ECE
:1015F000276E000E266E000E316E000E306E01D08A
:1016000000D02E042F10D8A401D001D022D1FF0E7B
:101610003F240001A96FFF0E40200001AA6F0001C6
:101620000001EB510001A95D00010001EC51000136
:10163000AA59D8A001D001D0FBD0FF0E3D24000153
:10164000A96FFF0E3E200001AA6F30500001A95D76
:1016500031500001AA59D8A001D001D0FAD030C031
:10166000A9F031C0AAF00001D890A937AA3700012B
:10167000D890A937AA370201000E0001A925D96E1A
:101680000201020E0001AA21DA6EDF500001000102
:10169000AB6F30C0A9F031C0AAF00001D890A937D3
:1016A000AA370001D890A937AA37010E0001A9274F
:1016B000000EAA230201000E0001A925D96E020125
:1016C000020E0001AA21DA6EDF50206E80EC1FF0BE
:1016D00020C0AFF021C0B0F030C0A9F031C0AAF0F6
:1016E0000001D890A937AA370001D890A937AA37A6
:1016F000020E0001A927000EAA230201000E00011C
:10170000A925D96E0201020E0001AA21DA6EDF506E
:1017100000010001AC6F30C0A9F031C0AAF0000197
:10172000D890A937AA370001D890A937AA37030E55
:101730000001A927000EAA230201000E0001A9251D
:10174000D96E0201020E0001AA21DA6EDF50206E6E
:1017500080EC1FF020C0B1F021C0B2F00001000108
:10176000AF5100010001B15D00010001B051000165
:101770000001B259D8A001D001D005D0AFC0ADF062
:10178000B0C0AEF016D000010001AF510001000161
:10179000B15D00010001B05100010001B259D8B0A3
:1017A00001D001D006D0B1C0ADF0B2C0AEF001D0D2
:1017B00000D0304A312AFF0E3D240001A96FFF0EF0
:1017C0003E200001AA6F30500001A95D3150000198
:1017D000AA59D8B001D001D009D000010001EB4BCB
:1017E000EC2B000E316E000E306E00D00001A96FA0
:1017F000000E00010001A66F0001A951ABC0A7F0C7
:101800000001CAEC20F00001A96F010E00010001E7
:10181000A66F0001A951ACC0A7F00001CAEC20F0EE
:10182000ADC020F0AEC021F0CBEC1CF012D011D036
:10183000000E2F6E000E2E6E000E00010001EC6FE8
:10184000000E0001EB6F000E316E000E306E01D005
:1018500000D01200000E00010001B36F000E000165
:10186000B26F00010001E651E511D8B401D001D0FA
:1018700002D032D231D28C8E0A0E00010001AA5D54
:10188000000E0001AB59D8B001D001D06ED0AAC073
:10189000A3F0ABC0A4F0000E00010001A66F020E81
:1018A0000001A56F0001B6EC1FF0000E0001000161
:1018B000B36F000E0001B26F00010001B351800A46
:1018C000800F320ED8B4B25DD8A001D001D002D0C2
:1018D00012D011D000010001B24BB32B0001000166
:1018E000B351800A800F320ED8B4B25DD8A001D0B7
:1018F00001D0F0D700D0000E00010001A46F000E4F
:101900000001A36F000E00010001A66F030E00018D
:10191000A56F0001B6EC1FF0000E00010001B36FCF
:10192000000E0001B26F00010001B351800A800F68
:10193000320ED8B4B25DD8A001D001D002D012D0FE
:1019400011D000010001B24BB32B00010001B351D3
:10195000800A800F320ED8B4B25DD8A001D001D079
:10196000F0D700D03AEC21F09FD00A0E0001000120
:10197000AA5D000E0001AB59D8A001D001D094D0CF
:10198000AAC0A3F0ABC0A4F0000E00010001A66F36
:101990000A0E0001A56F0001B7EC1DF00001A3C005
:1019A000AEF00001A4C0AFF0AAC0A3F0ABC0A4F099
:1019B000000E00010001A66F0A0E0001A56F0001D4
:1019C0001CEC1CF00001A3C0B0F00001A4C0B1F0F9
:1019D000AEC0A3F0AFC0A4F0000E00010001A66FDE
:1019E000020E0001A56F0001B6EC1FF0000E000111
:1019F0000001B36F000E0001B26F00010001B3518E
:101A0000800A800F320ED8B4B25DD8A001D001D0C8
:101A100002D012D011D000010001B24BB32B000153
:101A20000001B351800A800F320ED8B4B25DD8A045
:101A300001D001D0F0D700D0B0C0A3F0B1C0A4F065
:101A4000000E00010001A66F030E0001A56F00014A
:101A5000B6EC1FF0000E00010001B36F000E000194
:101A6000B26F00010001B351800A800F320ED8B46A
:101A7000B25DD8A001D001D002D012D011D00001A7
:101A80000001B24BB32B00010001B351800A800F5B
:101A9000320ED8B4B25DD8A001D001D0F0D700D0BA
:101AA0003AEC21F001D000D00A0E00010001AC5D3B
:101AB000000E0001AD59D8B001D001D06ED0ACC03D
:101AC000A3F0ADC0A4F0000E00010001A66F000E4F
:101AD0000001A56F0001B6EC1FF0000E000100012F
:101AE000B36F000E0001B26F00010001B351800A14
:101AF000800F320ED8B4B25DD8A001D001D002D090
:101B000012D011D000010001B24BB32B0001000133
:101B1000B351800A800F320ED8B4B25DD8A001D084
:101B200001D0F0D700D0000E00010001A46F000E1C
:101B30000001A36F000E00010001A66F010E00015D
:101B4000A56F0001B6EC1FF0000E00010001B36F9D
:101B5000000E0001B26F00010001B351800A800F36
:101B6000320ED8B4B25DD8A001D001D002D012D0CC
:101B700011D000010001B24BB32B00010001B351A1
:101B8000800A800F320ED8B4B25DD8A001D001D047
:101B9000F0D700D03AEC21F09FD00A0E00010001EE
:101BA000AC5D000E0001AD59D8A001D001D094D099
:101BB000ACC0A3F0ADC0A4F0000E00010001A66F00
:101BC0000A0E0001A56F0001B7EC1DF00001A3C0D3
:101BD000AEF00001A4C0AFF0ACC0A3F0ADC0A4F063
:101BE000000E00010001A66F0A0E0001A56F0001A2
:101BF0001CEC1CF00001A3C0B0F00001A4C0B1F0C7
:101C0000AEC0A3F0AFC0A4F0000E00010001A66FAB
:101C1000000E0001A56F0001B6EC1FF0000E0001E0
:101C20000001B36F000E0001B26F00010001B3515B
:101C3000800A800F320ED8B4B25DD8A001D001D096
:101C400002D012D011D000010001B24BB32B000121
:101C50000001B351800A800F320ED8B4B25DD8A013
:101C600001D001D0F0D700D0B0C0A3F0B1C0A4F033
:101C7000000E00010001A66F010E0001A56F00011A
:101C8000B6EC1FF0000E00010001B36F000E000162
:101C9000B26F00010001B351800A800F320ED8B438
:101CA000B25DD8A001D001D002D012D011D0000175
:101CB0000001B24BB32B00010001B351800A800F29
:101CC000320ED8B4B25DD8A001D001D0F0D700D088
:101CD0003AEC21F001D000D01200000E000100010A
:101CE000D36F000E0001D26F00010001CE69000128
:101CF000CF69000E00010001F06F010E0001EF6FCF
:101D0000000E00010001CD6F010E0001CC6F00D06C
:101D100071EC20F021502010D8A401D001D079D04E
:101D200000010001D351D211D8A401D001D015D0A7
:101D3000010E216E2C0E206ECBEC1CF00001FCEC91
:101D40000FF00001BAC0D2F00001BBC0D3F0000117
:101D50000001CE690001CF695CD000010001D2050D
:101D6000D311D8A401D001D031D0010E216E2C0E98
:101D7000206ECBEC1CF000010001F451F311D8A44B
:101D800001D001D00CD08A828A94000E000100019B
:101D9000F46F010E0001F36F32EC12F03AD0000143
:101DA0000001F451F311D8B401D001D032D08A929D
:101DB0008A840F010F01479F000E00010001F46F9C
:101DC000000E0001F36F25D024D023D000010001C4
:101DD000D251020AD311D8A401D001D00CD040ECCA
:101DE00021F050EC21F0010E216E2C0E206ECBEC78
:101DF0001CF001D10ED040EC21F050EC21F0010E8E
:101E0000216E2C0E206ECBEC1CF0F5D002D001D050
:101E100000D000010001E051DF11D8B401D001D0A1
:101E20004FD00001000E216E0001F50E206EE7EC90
:101E30001FF0205000010001D227215000010001B5
:101E4000D323100EF66E0F0EF76E000EF86E09001B
:101E5000F5CFC9F00900F5CFCAF00001CA51800AD8
:101E60000001CB6F00010001D2510001C95D0001EA
:101E70000001D351800A0001CB59D8B001D001D064
:101E800008D0000E00010001D36F000E0001D26FD8
:101E900017D000010001D3AF01D001D011D0100E36
:101EA000F66E0F0EF76E000EF86E09000001F5CF0A
:101EB000D2F00A000001F5CFD3F002D001D000D05B
:101EC00000010001CF5100010001D31906E100011A
:101ED0000001CE5100010001D219D8B401D001D0C7
:101EE00017D7D2C0CEF0D3C0CFF040EC21F01FD036
:101EF000898A35D000010001F451F311D8A401D032
:101F000001D003D08A848A922AD000010001F451C2
:101F1000F311D8B401D001D022D08A828A941FD084
:101F20001ED01DD08A8C1BD08D8219D018D00001F4
:101F3000D2C0C9F00001D3C0CAF00001CA51000AE2
:101F4000D8B401D0F1D70001C951000AD8B4D0D714
:101F5000010AD8B4CFD7030AD8B4E4D7E5D7000133
:101F60000001CD51CC11D8A401D001D03AD0000E3F
:101F700000010001D16F000E0001D06F000E0001C2
:101F80000001D16F000E0001D06F00010001D1519E
:101F9000800A7F0FF40ED8B4D05DD8A001D001D054
:101FA00002D012D011D000010001D04BD12B000182
:101FB0000001D151800A7F0FF40ED8B4D05DD8A0B3
:101FC00001D001D0F0D700D0000E00010001F56F64
:101FD00081380F0B030B00010001F5131CEC21F0FD
:101FE00000D0000E00010001CD6F000E0001CC6F8B
:101FF0008FD68ED68DD61200000E00010001BE6F66
:10200000000E0001BD6F000E00010001C46F000E44
:102010000001C36F000E00010001C26F000E00013D
:10202000C16F000E00010001C06F000E0001BF6F04
:1020300012EC21F000D000010001E051DF11D8B412
:1020400001D001D043D00001000E216E0001F50E39
:10205000206EE7EC1FF0205000010001C327215043
:1020600000010001C423000E00010001C06F000E3A
:102070000001BF6F00010001C051800A7F0FF40E04
:10208000D8B4BF5DD8A001D001D002D012D011D0F9
:1020900000010001BF4BC02B00010001C051800AAC
:1020A0007F0FF40ED8B4BF5DD8A001D001D0F0D717
:1020B00000D0000E00010001F56F81380F0B030BFB
:1020C00000010001F5131CEC21F000D0000100011B
:1020D000C251C111D8A401D001D016D0C3C0A3F001
:1020E000C4C0A4F02AC0A5F02BC0A6F037C0A7F04A
:1020F00038C0A8F000010FEC1FF00001A3C0C3F02E
:102100000001A4C0C4F01FD000010001C105C2112C
:10211000D8A401D001D017D0C3C0A3F0C4C0A4F08C
:102120002AC0A5F02BC0A6F035C0A7F036C0A8F095
:1021300000010FEC1FF00001A3C0C3F00001A4C018
:10214000C4F001D000D0C3C0AAF0C4C0ABF0C1C07D
:10215000ACF0C2C0ADF000018AEC07F071EC20F0E9
:1021600021502010D8A401D001D065D7010E216ED6
:102170002C0E206ECBEC1CF03AEC21F0000100019B
:10218000C251C111D8A401D001D01CD0C3C020F0CD
:10219000C4C021F0C4EC19F000010001C76F000EAB
:1021A00000010001C26F010E0001C16F000E0001AD
:1021B0000001F56F000E00010001C46F000E000168
:1021C000C36F39D700010001C105C211D8A401D0E5
:1021D00001D031D7C3C020F0C4C021F0C4EC19F045
:1021E00000010001C86F0001BC6F000E000100017A
:1021F000C66F0001BC5104D01ED71DD71CD71BD7FA
:102200000001000E00010001A46F0001C50E0001D5
:10221000A36F0001BC6F010E00010001A56F00015A
:10222000BC5100010BEC16F0000E00010001BB6F69
:10223000000E0001BA6F00D012000F0E0001C26F35
:102240000001BCC0C3F00001BDC0C4F00001BEC0AD
:10225000C5F00001C2290001C66F05D00001D89069
:10226000C533C433C3330001C62FF8D70001C351AF
:1022700000010001C76F0001C76701D001D00ED077
:10228000000E00010001BC6F000E00010001BD6FD7
:10229000000E00010001BE6FE4D0E3D00F0E00017C
:1022A000C26F0001BFC0C3F00001C0C0C4F0000194
:1022B000C1C0C5F00001C2290001C66F05D00001F0
:1022C000D890C533C433C3330001C62FF8D70001FB
:1022D000C35100010001CC6F0001CC6701D001D0D7
:1022E0000ED0000E00010001BC6F000E00010001C5
:1022F000BD6F000E00010001BE6FB3D0B2D000016F
:102300000001CC517B0F00010001C727BEC0CCF0FB
:102310000001C15100010001CC1B800E0001000131
:10232000CC1700010001BD8F00010001C08FFF0E1E
:1023300000010001BF17FF0E00010001C017000ED1
:1023400000010001C117000E00010001C86F000E5E
:1023500000010001C96F000E00010001CA6F0001F9
:10236000C26F070E00010001CB6F0001C25100D007
:1023700000010001BCA101D001D013D00001000177
:10238000BF5100010001C82700010001C051000138
:102390000001C92300010001C15100010001CA234D
:1023A00000D00001D8900001BE330001BD33000110
:1023B000BC330001D8900001BF370001C0370001D5
:1023C000C13700010001CB2FD3D700D00001C26F6D
:1023D000090E00010001CB6F0001C25100D00001C5
:1023E0000001BCA101D001D013D000010001BF51F8
:1023F00000010001C82700010001C05100010001D7
:10240000C92300010001C15100010001CA2300D00D
:102410000001D8900001BE330001BD330001BC3380
:102420000001D8900001CA330001C9330001C8334C
:1024300000010001CB2FD3D700D0C8C0A3F0C9C082
:10244000A4F0CAC0A5F0C7C0A6F0CCC0A7F0000198
:10245000B1EC17F0A3C0BCF0A4C0BDF0A5C0BEF0A5
:1024600000D01200000E00010001C06F000E00013C
:10247000BF6F000E00010001BE6F000E0001BD6FB6
:10248000000E00010001BC6F000E0001BB6F00D008
:1024900000010001E051DF11D8B401D001D043D0D8
:1024A0000001000E216E0001F50E206EE7EC1FF01A
:1024B000205000010001BF27215000010001C0236E
:1024C000000E00010001BC6F000E0001BB6F000197
:1024D0000001BC51800A7F0FF40ED8B4BB5DD8A0B8
:1024E00001D001D002D012D011D000010001BB4BAD
:1024F000BC2B00010001BC51800A7F0FF40ED8B440
:10250000BB5DD8A001D001D0F0D700D0000E0001F3
:102510000001F56F81380F0B030B00010001F5136B
:102520001CEC21F000D000010001BE51BD11D8A467
:1025300001D001D016D0BFC0A3F0C0C0A4F02AC003
:10254000A5F02BC0A6F037C0A7F038C0A8F0000156
:102550000FEC1FF00001A3C0BFF00001A4C0C0F049
:102560001FD000010001BD05BE11D8A401D001D0CB
:1025700017D0BFC0A3F0C0C0A4F02AC0A5F02BC0E4
:10258000A6F035C0A7F036C0A8F000010FEC1FF090
:102590000001A3C0BFF00001A4C0C0F001D000D072
:1025A000BFC0AAF0C0C0ABF0BDC0ACF0BEC0ADF0C3
:1025B00000018AEC07F071EC20F021502010D8A423
:1025C00001D001D065D7010E216E2C0E206ECBEC10
:1025D0001CF03AEC21F000010001BE51BD11D8A45D
:1025E00001D001D01CD0BFC020F0C0C021F0C4EC8D
:1025F00019F000010001C36F000E00010001BE6F61
:10260000010E0001BD6F000E00010001F56F000E0C
:1026100000010001C06F000E0001BF6F39D700013B
:102620000001BD05BE11D8A401D001D031D7BFC073
:1026300020F0C0C021F0C4EC19F000010001C46F0B
:102640000001BA6F000E00010001C26F0001BA5113
:1026500004D01ED71DD71CD71BD70001000E216E3A
:102660000001C10E206E2AEC19F00F010F01478FF7
:1026700000D012000F0E0001B16F0001ABC0B2F02C
:102680000001ACC0B3F00001ADC0B4F00001B1294D
:102690000001B56F05D00001D890B433B333B23325
:1026A0000001B52FF8D70001B25100010001BA6F47
:1026B0000001BA6701D001D00ED0000E0001000168
:1026C000AB6F000E00010001AC6F000E00010001B5
:1026D000AD6FCAD0C9D00F0E0001B16F0001AEC0FE
:1026E000B2F00001AFC0B3F00001B0C0B4F000011F
:1026F000B1290001B56F05D00001D890B433B333D0
:10270000B2330001B52FF8D70001B251000100012A
:10271000BB6F0001BB6701D001D00ED0000E0001DD
:102720000001AB6F000E00010001AC6F000E000154
:102730000001AD6F99D098D0000E00010001B76F75
:10274000000E00010001B86F000E00010001B96F1A
:1027500000010001BB51890F00010001BA5FADC04B
:10276000BBF00001B05100010001BB1B800E000155
:102770000001BB1700010001AC8FFF0E000100013A
:10278000AB17FF0E00010001AC17000E00010001A5
:10279000AD1700010001AF8FFF0E00010001AE1761
:1027A000FF0E00010001AF17000E00010001B0177D
:1027B0000001B16F180E00010001B66F0001B151A8
:1027C0000001D8900001B7370001B8370001B937D0
:1027D00000010001AE5100010001AB5D00010001EC
:1027E000AF5100010001AC5900010001B0510001DE
:1027F0000001AD59D8A001D001D015D000010001D1
:10280000AE5100010001AB5F00010001AF510001BA
:102810000001AC5B00010001B05100010001AD5BA3
:1028200000010001B7810001D8900001AB37000121
:10283000AC370001AD3700010001B62FC1D700D081
:10284000B7C0A3F0B8C0A4F0B9C0A5F0BAC0A6F054
:10285000BBC0A7F00001B1EC17F0A3C0ABF0A4C05F
:10286000ACF0A5C0ADF000D012000F0E0001A76FB4
:102870000001A3C0A8F00001A4C0A9F00001A5C0F8
:10288000AAF00001A7290001AB6F05D00001D89084
:10289000AA33A933A8330001AB2FF8D70001A85100
:1028A00000010001B16F0001B16701D001D00FD06C
:1028B000000E00010001A36F000E0001A46F000EC6
:1028C0000001A56F000E0001A66FC0D0BFD0170E8B
:1028D0000001A76F0001A3C0A8F00001A4C0A9F0E7
:1028E0000001A5C0AAF00001A7290001AB6F05D027
:1028F0000001D890AA33A933A8330001AB2FF8D731
:102900000001A85100010001AC6F00010001A48F7B
:10291000FF0E00010001A317FF0E00010001A41724
:10292000000E00010001A51700010001A3510001E4
:102930000001AD6F00010001A4510001AE6F000164
:10294000A5510001AF6F0001B06B8E0E00010001B8
:10295000B15F00010001B1AF01D001D029D0000169
:102960000001B151800A8F0FD8B001D001D010D032
:10297000000E00010001A36F000E0001A46F000E05
:102980000001A56F000E0001A66F60D05FD000D0DF
:102990000001D8900001B0330001AF330001AE3325
:1029A0000001AD3300010001B13FF2D72ED02DD090
:1029B000170E00010001B16501D001D01ED0000E3C
:1029C00000010001A36F000E0001A46F000E0001C2
:1029D000A56F000E0001A66F39D038D00ED00001CF
:1029E000D8900001AD370001AE370001AF370001CC
:1029F000B03700010001B10700D000010001B1674C
:102A000001D001D0ECD701D000D000010001AC51C1
:102A1000D8B401D001D011D000010001B01F0001D5
:102A2000AF1F0001AE1F0001AD6D000E0001AE230F
:102A30000001AF230001B02300D0ADC0A3F0AEC0B1
:102A4000A4F0AFC0A5F0B0C0A6F000D01200D08EA8
:102A5000F28EF28CEFEC20F0FDEC20F008EC21F08F
:102A60008FEC20F0DDEC20F00101010E00010001EF
:102A7000AE6F0101DA0E0001AD6F000E0001000122
:102A8000B06F000E0001AF6F000E00010001B26FC9
:102A9000000E0001B16F00018BEC1EF00101010E70
:102AA00000010001AB6F0101DE0E0001AA6F000EF4
:102AB00000010001AD6F000E0001AC6F000E0001BF
:102AC0000001AF6F000E0001AE6F0001FFEC1DF0C2
:102AD0002DEC21F081380F0B030B00010001F513E1
:102AE0008D80000E216E640E206ECBEC1CF08D905C
:102AF0008D82000E216E640E206ECBEC1CF08D9248
:102B00008D84000E216E640E206ECBEC1CF08D9433
:102B1000000E01010101D96F000E0101D86F00D034
:102B200000010001F251F111D8B401D001D04FD011
:102B30000101010E216E0101E20E206E46EC1EF035
:102B4000E5C120F044EC1BF020C0D4F121C0D5F148
:102B5000E4C120F044EC1BF020C0D6F121C0D7F135
:102B6000000E01010101D96F000E0101D86FD00ED6
:102B700001010101D85D070E0101D959D8A001D08A
:102B800001D002D01CD01BD0D4C1AAF0D5C1ABF06B
:102B9000D6C1ACF0D7C1ADF000012AEC0CF00101B8
:102BA0000101D84BD92BD00E01010101D85D070ED0
:102BB0000101D959D8A001D001D0E6D700D0000E2C
:102BC00000010001F26F000E0001F16F00D071EC06
:102BD00020F021502010D8A401D001D00DD03AEC23
:102BE00021F0010E216E2C0E206ECBEC1CF04DEC72
:102BF00021F06DEC0EF000D000010001E251E11176
:102C0000D8B401D001D08CD77AEC1CF089D788D702
:102C100087D751EF00F0206E000E00010001A76F72
:102C20002050000120EE02F00001A351D92600013E
:102C3000A451DA22DF50206E5A0E205CD8B001D0A9
:102C400001D0C6D0000120EE01F00001A351D92629
:102C50000001A451DA22DF50206E5A0E205CD8B059
:102C600001D001D0B5D0000120EE03F00001A35146
:102C7000D9260001A451DA22240EDF6401D001D04C
:102C800002D0A6D0A5D0000120EE02F00001A35191
:102C9000D9260001A451DA22DF5000010001AA6FF9
:102CA000000120EE01F00001A351D9260001A4513A
:102CB000DA22DF5000010001A96F00010001A551D7
:102CC000D8B401D001D002D0F29C00D0000E0F0188
:102CD0003FBB010E00010001A86F0001A86701D0F1
:102CE00001D003D012EC21F000D0000E0F013FBF45
:102CF000010E00010001A66F0001A651D8B401D059
:102D000001D00BD0000E0F0147BF010E00010001E2
:102D1000A76F0F010F013F9F00D0FC0E0F010F01A5
:102D20003F170F010F013F813ACFABF03BCFACF023
:102D3000000120EE03F00001A351D9260001A451A7
:102D4000DA22DF5000010001AB6FFC0E0F010F0112
:102D50003F170F010F013F81ABC03AFFACC03BFFF3
:102D6000A9C03AFFAAC03BFF00010001A651D8B498
:102D700001D001D019D00F010F013F8F00010001D8
:102D8000A751D8B401D001D004D00F010F01478F53
:102D900000D000010001A851D8B401D001D00FD05B
:102DA00012EC21F00CD00BD000010001A86701D07B
:102DB00001D005D00F010F013F9B01D000D00001D1
:102DC0000001A551D8B401D001D002D0F28C00D0BE
:102DD0001200EACF15F0E1CF16F0E2CF17F0D9CF0D
:102DE00018F0DACF19F0F3CF1AF0F4CF1BF0F6CFCA
:102DF0001CF0F7CF1DF0F8CF1EF0F5CF1FF0F2A8B2
:102E000001D001D028D0F2A201D001D024D00001FD
:102E10000001E251E111D8B401D001D012D0000E6E
:102E200000010001E26F000E0001E16F000E0001E1
:102E30000001F26F010E0001F16FF29275D074D0B3
:102E40000AD0000E00010001F26F010E0001F16FC7
:102E5000F2926AD069D0F2AA01D001D00ED0F2A4C9
:102E600001D001D00AD0000E00010001E66F000E73
:102E70000001E56FF29458D057D0F2A601D001D0EE
:102E800041D0F2A001D001D03DD000010001E051BD
:102E9000DF11D8B401D001D003D0F29045D032D0A8
:102EA00000010001F545E846FC0B00010001F56F4B
:102EB00081380F0B030B00010001F513CF0E000149
:102EC0000001F56501D001D01AD000010001F551D3
:102ED000E10AD8B401D001D009D000010001F551B8
:102EE000D20AD8A401D001D007D000D025EC21F01F
:102EF000F2901AD019D006D0F29016D003D0F290EA
:102F000013D000D0A3A001D001D00ED0A4A001D036
:102F100001D00AD0000E00010001E26F010E000195
:102F2000E16FA49001D000D01FC0F5FF1EC0F8FFD4
:102F30001DC0F7FF1CC0F6FF1BC0F4FF1AC0F3FF53
:102F400019C0DAFF18C0D9FF17C0E2FF16C0E1FFB1
:102F500015C0EAFF14C0E9FF13C0FBFF12C0FAFF5F
:102F6000110000010001A651D8B401D001D00CD04D
:102F700000010001A3510001A4110001A511D8A472
:102F800001D001D01CD000D0000E00010001A36FC1
:102F9000000E00010001A46F000E00010001A56FEA
:102FA000A5D0A4D00CD000010001A62B0001D89020
:102FB0000001A5330001A4330001A33300D0000EAB
:102FC00000010001A3150001A86F000E000100011F
:102FD000A4150001A96FFE0E00010001A515000156
:102FE000AA6F0001A851A911AA11D8A401D001D03B
:102FF000DAD719D018D000010001A62B010E00016C
:103000000001A327000E00010001A423000E00010F
:103010000001A5230001D8900001A5330001A433CD
:103020000001A33300D0000E00010001A315000130
:10303000A86F000E00010001A4150001A96FFF0E8A
:1030400000010001A5150001AA6F0001A851A911F6
:10305000AA11D8A401D001D0CED70DD00CD0000138
:103060000001A6070001D8900001A3370001A43792
:103070000001A53700D000010001A4AF01D001D0AC
:10308000EED700010001A6B101D001D004D00001AB
:103090000001A49F00D00001D890A63300010001D8
:1030A000A6510001AA6FA96BA86B0001A8510001ED
:1030B0000001A3130001A95100010001A4130001A4
:1030C000AA5100010001A51300010001A751D8B4C5
:1030D00001D001D004D000010001A58F00D0A3C011
:1030E000A3F0A4C0A4F0A5C0A5F000D01200000E6B
:1030F00000010001D36FC80E00010001D46F420E21
:1031000000010001D56FD3C0A3F0D4C0A4F0D5C096
:10311000A5F0000E00010001A66F700E0001000175
:10312000A76F420E00010001A86F000152EC1AF0D7
:10313000D8B001D001D002D08CD08BD0000E0001CD
:103140000001AE6F700E00010001AF6F420E000172
:103150000001B06FD3C0ABF0D4C0ACF0D5C0ADF0BF
:1031600000013AEC13F0ABC0D0F0ACC0D1F0ADC070
:10317000D2F0D0C0AEF0D1C0AFF0D2C0B0F0000EEF
:1031800000010001AB6F800E00010001AC6F3F0E2B
:1031900000010001AD6F00013AEC13F0ABC0BCF0D0
:1031A000ACC0BDF0ADC0BEF0000E00010001BF6FAD
:1031B0007A0E00010001C06F440E00010001C16FD2
:1031C00000011DEC11F0BCC0CDF0BDC0CEF0BEC002
:1031D000CFF0CDC0A3F0CEC0A4F0CFC0A5F00001C9
:1031E00035EC14F0A3C0E9F0A4C0EAF0D8900001D7
:1031F0000001E935246E00010001EA35256E000169
:10320000E9C020F00001EAC021F0D8902036213634
:10321000D8902036213620C02CF021C02DF0D89037
:1032200000010001EA31236E00010001E931226E44
:103230000001E9C020F00001EAC021F0D89021325D
:103240002032D8902132203220C028F021C029F02D
:1032500000D0120020EE02F02050D9262150DA22B0
:10326000DF500001A36F5A0E0001A35DD8B001D05A
:1032700001D089D020EE01F02050D9262150DA2249
:10328000DF500001A36F5A0E0001A35DD8B001D03A
:1032900001D079D020EE03F02050D9262150DA2237
:1032A000240EDF6401D001D002D06DD06CD020EEAE
:1032B00002F02050D9262150DA22DF50000100010F
:1032C000A76F20EE01F02050D9262150DA22DF50DE
:1032D00000010001A66F000E0F013FBB010E0001AF
:1032E0000001A46F0001A46701D001D003D012EC4B
:1032F00021F000D0000E0F0147BF010E00010001B8
:10330000A56F0001A551D8B401D001D004D00F01A0
:103310000F01479F00D0FC0E0F010F0147170F014F
:103320000F01478144CFA8F045CFA9F020EE03F06C
:103330002050D9262150DA22DF5000010001A86F69
:10334000FC0E0F010F0147170F010F014781A8C0A5
:1033500044FFA9C045FFA6C044FFA7C045FF000128
:103360000001A551D8B401D001D003D00F010F0145
:10337000478F00010001A46701D001D004D00F01E4
:103380000F013F9B00D01200640E205C000E2158FC
:10339000D8A001D001D003D0FF0E83D082D000018D
:1033A000A36F000E00010001A66F0001A351000EE3
:1033B00000010001A56F000E0001A46F00010001D3
:1033C000A551800A800F080ED8B4A45DD8A001D002
:1033D00001D002D062D061D020AE01D001D00CD09B
:1033E00000010001A6510001A62500010001A66F01
:1033F00000010001A68108D000010001A6510001D2
:10340000A62500010001A66FD8902034206E21343B
:10341000216EA6C0A3F00F0E0001A317050E000138
:10342000A35DD8A001D001D00DD000010001A451AE
:10343000070AA511D8B401D001D004D0030E0001B1
:103440000001A627A6C0A3F0F00E0001A317500E9E
:103450000001A35DD8A001D001D00ED00001000171
:10346000A451070AA511D8B401D001D005D0300E5F
:1034700000010001A62700D000010001A44BA52BEC
:1034800000010001A551800A800F080ED8B4A45D88
:10349000D8A001D001D0A0D700D000010001A651D2
:1034A00000D0120000010001A5AF01D001D022D050
:1034B0000001A3C0A9F00001A4C0AAF00001A5C0AA
:1034C000ABF00001A91FAA1FAB1FA92B000EAA2356
:1034D000AB23000E0001A92500010001A36F000E1F
:1034E0000001AA210001A46F800E0001AB210001A0
:1034F000A56F00D000010001A8AF01D001D022D0FB
:103500000001A6C0A9F00001A7C0AAF00001A8C050
:10351000ABF00001A91FAA1FAB1FA92B000EAA2305
:10352000AB23000E0001A92500010001A66F000ECB
:103530000001AA210001A76F800E0001AB2100014C
:10354000A86F00D0000E00010001A31B000E0001B7
:103550000001A41B800E00010001A51B000E00014C
:103560000001A61B000E00010001A71B800E000138
:103570000001A81B00010001A65100010001A35D8C
:1035800000010001A75100010001A4590001000140
:10359000A85100010001A559D8B001D001D002D036
:1035A000D89003D0D88001D000D012004771347178
:1035B000426538714465006547713B7142653F71F2
:1035C0004465006547653371496500654B65367133
:1035D000476500654C653B714B6500654C653F7107
:1035E0004E6500654771317142653471446500650F
:1035F0004771387142653B71446500654C652F71B8
:103600004B65006549653371476500654265366500
:103610003F65006540653B714265006547713471E7
:10362000426538714465006547713B7142653F7181
:1036300044650065476533714765006549653671C6
:103640004B65006547653B714265006544653F71A8
:1036500042650065477131714765347146650065A3
:10366000476538714265006544653B714665006594
:103670004C652F714B6500654C6533714E65006577
:103680004771367146713B71100E206001D001D038
:1036900005D020C020F0216A64D063D00F0E2064D2
:1036A00001D001D00ED0200E206001D001D009D071
:1036B000FA0E2024206E216AFF0E212252D051D012
:1036C00050D01F0E206401D001D00ED0300E2060EB
:1036D00001D001D009D0F40E2024206E216AFF0E03
:1036E00021223FD03ED03DD02F0E206401D001D00A
:1036F0000ED0400E206001D001D009D0EE0E202463
:10370000206E216AFF0E21222CD02BD02AD03F0E12
:10371000206401D001D00ED0500E206001D001D025
:1037200009D0E80E2024206E216AFF0E212219D034
:1037300018D017D04F0E206401D001D012D0600EE7
:10374000206001D001D00DD0E20E2024206E216A2D
:10375000FF0E212206D005D004D003D002D001D024
:1037600000D012004E713471507140714A6536714B
:103770004B65006500654271476500654A653371B8
:103780004965006547713F714771387147654471FC
:10379000496500714A7131714A653D71496500653D
:1037A00047653671496500654B6542714E65006538
:1037B00050652F714B6500654E653B71496500652D
:1037C0004B652F714765006549653B71476500652D
:1037D0004B7134714E714071506536714B650065A7
:1037E0004E654271496500654B65337147650065FB
:1037F00049653F714B6500654965387147650065EE
:1038000044654471476500654A71317147653D7192
:10381000496500654B6536714E65006549654271C5
:103820004B65006549652F714765006544713B71C3
:1038300047712F7100713B71000E00010001A96FEB
:10384000000E0001A86F00010001A651A511D8B417
:1038500001D001D04AD0206E010E00010001A76FF7
:1038600020500AD0000100010001D890A537A637EA
:1038700000010001A72B00D000010001A6AF01D07C
:1038800001D0F0D701D000D0000100010001D89094
:10389000A837A93700010001A55100010001A35D6F
:1038A00000010001A65100010001A459D8A001D0D7
:1038B00001D010D000010001A55100010001A35F5B
:1038C00000010001A65100010001A45B00010001FC
:1038D000A88100D0000100010001D890A633A533D3
:1038E00000010001A72FD0D700D0A8C0A3F0A9C025
:1038F000A4F01200000E00010001D96F000E0001BB
:10390000D86F6AEC1DF0010E216E2C0E206ECBECF0
:103910001CF001D000D000010001E651E511D8A44F
:1039200001D001D0F8D721D020D0D8C020F0D9C004
:1039300021F04AEC1FF0DBEC09F000010001D84B4C
:10394000D92B060E00010001D85D000E0001D959E7
:10395000D8A001D001D009D0000E00010001D96F1C
:10396000000E0001D86F01D000D000010001E2512B
:10397000E111D8A401D001D0D8D700D052EC21F069
:10398000000E00010001E26F000E0001E16F49EC42
:1039900021F000D01200000E00010001E66F010EC0
:1039A0000001E56FA10E205C0F0E2158D8A001D0B8
:1039B00001D002D03FD03ED021502010D8A401D059
:1039C00001D002D037D036D020C0A3F021C0A4F05F
:1039D0000001A33BA43BF00EA417A3510F0BA413AB
:1039E000F00EA3170001A31FA41FA34BA42BFF0ECF
:1039F0000001A32500010001A76FFF0E0001A42113
:103A00000001A86FA7C0A5F000010001A8510001A6
:103A10000001A66FA6C0D7FFA5C0D6FFD58E01D0E6
:103A200000D000010001E651E511D8A401D001D079
:103A3000F8D7D59E120000EEDFF0170EEE6AE8060A
:103A4000FDE100EE22F0130EEE6AE806FDE1AC0E99
:103A5000F66E350EF76E000EF86E02EE00F010EE08
:103A6000DCF00900F5CFEEFFE550E150FAE1640E1D
:103A7000F66E370EF76E000EF86E01EE00F010EEE7
:103A8000D4F00900F5CFEEFFE550E150FAE15E0E0B
:103A9000F66E400EF76E000EF86E00EE60F010EE5F
:103AA00043F00900F5CFEEFFE550E150FAE1680E72
:103AB000F66E420EF76E000EF86E00EE35F010EE68
:103AC0000CF00900F5CFEEFFE550E150FAE10001FE
:103AD00027EF15F056EC21F054EC21F077EC18F0BC
:103AE0000001D66F000E00010001A66F0001D65143
:103AF0000001D76F000E00010001A76F0001D75130
:103B00000001A4EC20F00001D66F000E00010001BE
:103B1000A66F0001D6510001D76F000E0001000111
:103B2000A76F0001D7510001A4EC20F00001D66F6F
:103B3000000E00010001A66F0001D651A2C0A7F03F
:103B40000001B7EC20F00001D66F010E000100016A
:103B5000A66F0001D651A2C0A7F00001B7EC20F07B
:103B6000000E316E000E306E58EC21F01200000194
:103B70000001A651A511D8B401D001D03BD0206ED0
:103B8000010E216E205008D0000100010001D890E4
:103B9000A537A637212A00D000010001A6AF01D029
:103BA00001D0F2D701D000D000010001A5510001E1
:103BB0000001A35D00010001A65100010001A4590C
:103BC000D8A001D001D00DD000010001A551000105
:103BD0000001A35F00010001A65100010001A45BE8
:103BE00000D0000100010001D890A633A533212E9A
:103BF000DBD700D0A3C0A3F0A4C0A4F01200000142
:103C000020EE03F00001AA51D9260001AB51DA22BF
:103C1000ACC020F0ADC021F0C4EC19F0DF6E0001A3
:103C200020EE02F00001AA51D9260001AB51DA22A0
:103C3000AEC020F0AFC021F0C4EC19F0DF6E00017F
:103C400020EE01F00001AA51D9260001AB51DA2281
:103C5000000EDF6E0001B06F060E206E0001B05145
:103C60000001B16F010E216E0001B151CEEC1EF0CA
:103C7000AAC020F0ABC021F02AEC19F00F010F010F
:103C8000479FA380A580A49000D01200FC0E0F01D6
:103C90000F013F170F010F013F813ACFAFF03BCF2C
:103CA000B0F03ACFB1F03BCFB2F0FC0E0F010F01F4
:103CB0003F170F010F013F813ACFA7F03BCFA8F08C
:103CC0003ACFA9F03BCFAAF000010001A9510001B1
:103CD00020EEB1F0DF6201D001D0D8D700D020EEC5
:103CE00003F02050D9262150DA220001AFC0DFFFB7
:103CF00020EE02F02050D9262150DA220001B2C075
:103D0000DFFF20EE01F02050D9262150DA220001F9
:103D1000B1C0DFFF120051EC20F012EC21F00F01D6
:103D20000F013F95000120EE03F00001AD51D926AF
:103D30000001AE51DA22AFC020F0B0C021F0C4ECD7
:103D400019F0DF6E000120EE02F00001AD51D9261E
:103D50000001AE51DA22B1C020F0B2C021F0C4ECB3
:103D600019F0DF6E000120EE01F00001AD51D926FF
:103D70000001AE51DA22000EDF6EADC0A3F0AEC07E
:103D8000A4F00001B36F000E00010001A56F000157
:103D9000B35100010BEC16F000D01200000E0F0121
:103DA00047BF010E00010001A46F00010001A451F2
:103DB000D8B401D001D013D02150D8B401D001D053
:103DC00005D00F010F01479F0AD000D00F010F014E
:103DD0003FB901D001D0FAD702D001D000D020C025
:103DE000A3F00001A347A3470F010F0147510001B2
:103DF000A319C30BA3190F010F01476F00010001A5
:103E0000A451D8B401D001D009D02150D8B401D0E8
:103E100001D004D00F010F01478F00D01200000124
:103E20000001A851800A206E00010001A351000189
:103E30000001A75D00010001A451800A2058D8B0FC
:103E400001D001D006D0A5C0A3F0A6C0A4F021D017
:103E500020D000010001A451800A206E0001000161
:103E6000A55100010001A35D00010001A651800AD7
:103E70002058D8B001D001D006D0A7C0A3F0A8C068
:103E8000A4F007D006D0A3C0A3F0A4C0A4F001D032
:103E900000D0120049EC21F013D08D8030D08D82FB
:103EA0002ED08D842CD08D808D8229D08D828D84D2
:103EB00026D045EC21F023D049EC21F020D01FD0B2
:103EC00020C0A3F021C0A4F00001A451000AD8B47E
:103ED00001D0F2D70001A351000AD8B4DED7010AFD
:103EE000D8B4DDD7030AD8B4DCD7010AD8B4DBD7FD
:103EF000070AD8B4DBD7010AD8B4DBD7DDD7120064
:103F000023D0E9C020F0EAC021F02FD02ED024C069
:103F100020F025C021F029D028D02CC020F02DC0C1
:103F200021F023D022D022C020F023C021F01DD0C8
:103F30001CD028C020F029C021F017D016D020684E
:103F4000216813D012D011D02050650AD8B4EBD715
:103F50000D0AD8B4DCD7190AD8B4D3D7020AD8B41A
:103F6000E8D7040AD8B4D9D7EAD712000A0E00015C
:103F70000001A35D000E0001A459D8A001D001D01A
:103F800002D024D023D0F00E8916800E8C16000E9D
:103F900000010001A325F66E0F0E0001A421F76EAB
:103FA000F86A000EF8220800F5508C120A0E000183
:103FB0000001A525F66E0F0E0001A621F76EF86A26
:103FC000000EF8220800F550801200D01200E10E19
:103FD00020C0D9FF21C0DAFFDF6201D001D007D0B5
:103FE000000E216E010E206E16D015D014D0D20E08
:103FF00020C0D9FF21C0DAFFDF6201D001D004D098
:104000002068216808D007D0000E216E000E206EB7
:1040100002D001D000D01200A3C0AEFF00D0ADA2EC
:1040200001D001D0FCD7A4C0AEFF00D0ADA201D01A
:1040300001D0FCD700D0A3C020F0F00E2016B10EA6
:10404000205CD8B001D001D009D0A5C0AEFF00D00F
:10405000ADA201D001D0FCD701D000D012000000E9
:10406000FFFF01000000010000000000FFFFFFFF54
:1040700000000000010000000100FFFF0000000040
:10408000FFFF01000000010000000000FFFFFFFF34
:1040900000000000010000000100FFFF000002001E
:1040A0007F00CD86000E0F010F013F6F000E0F0144
:1040B0000F013E6F0F010F013FAF01D001D00DD0B6
:1040C0000F010F013FBB01D001D003D012EC21F052
:1040D00000D00F010F013F9F00D00F010F013F9B48
:1040E000120081A601D001D007D0000E216E000E73
:1040F000206E14D013D012D081B601D001D007D0D9
:10410000000E216E010E206E09D008D007D0FF0EE0
:10411000216EFE0E206E02D001D000D012000F01E1
:104120000F01498393869388938A000E0001000152
:10413000E06F000E0001DF6F0F010F0149899380CE
:10414000F288F19C00D0120000010001A651B009D4
:1041500000010001A36F216E000E00010001A46F99
:104160002150A7C0A5F000010CEC20F012000001C6
:104170000001A651B00900010001A36F216E070ED6
:1041800000010001A46F2150A7C0A5F000010CECB4
:1041900020F0120000010001A65190090001000169
:1041A000A36FA7C0A4F0216E7F0E00010001A56FD0
:1041B000215000010CEC20F01200949CAD9CAD98B5
:1041C000AD84AC8E7E967E8A1F0EB06EAD8A949EB4
:1041D0008B9E0F010F014987949400D01200969096
:1041E00096929694929A93929394939C8D908D929A
:1041F0008D94899A8A848A821200F28AF184D59EEB
:10420000D59CD59AD598D596D580D582D5841200DF
:10421000000E956E7F0E8C6EF00E9216F00E8916C3
:1042200000D01200F29C550EA76EAA0EA76E0F01C9
:104230000F013F8BF28C1200000E00010001E06FB5
:10424000000E0001DF6F00D01200000E000100011F
:10425000E06F010E0001DF6F12000F010F013F8FB1
:104260000F010F01478F120017003B0035000200BD
:10427000370002007F0E83128C9EF00E8016120013
:10428000899A8A848A828A9C12008D808D828D848C
:1042900012008D908D928D941200F286F1801200A2
:1042A000F29612008B9E12008B8E12008B941200DD
:0442B0008B841200E9
:020000040001F9
:08FFF800BEF7FCFFFFFBFFFB5D
:00000001FF
