:0400000051EF00F0CC
:10000800FACF12F0FBCF13F0E9CF14F06CEF16F033
:10001800D8CF01F0E8CF02F0E0CF03F0FACF04F038
:10002800FBCF05F0E9CF06F0EACF07F0E1CF08F003
:10003800E2CF09F0D9CF0AF0DACF0BF0F3CF0CF00A
:10004800F4CF0DF0F6CF0EF0F7CF0FF0F8CF10F099
:10005800F5CF11F011C0F5FF10C0F8FF0FC0F7FF82
:100068000EC0F6FF0DC0F4FF0CC0F3FF0BC0DAFFA3
:100078000AC0D9FF09C0E2FF08C0E1FF07C0EAFFD4
:1000880006C0E9FF05C0FBFF04C0FAFF03C0E0FF9C
:0E00980002C0E8FF01C0D8FF100033EF1CF0DB
:100F00004079243019120278001808040201050003
:100F100002000000000E00010001B86F000E000189
:100F2000B76F33D20A0E00010001A95D000E000167
:100F3000AA59D8B001D001D06ED0A9C0A2F0AAC0E1
:100F4000A3F0000E00010001A56F000E0001A46FC8
:100F50000001D7EC1EF0000E00010001B86F000E7A
:100F60000001B76F00010001B851800A800F320EF6
:100F7000D8B4B75DD8A001D001D002D012D011D022
:100F800000010001B74BB82B00010001B851800AE5
:100F9000800F320ED8B4B75DD8A001D001D0F0D701
:100FA00000D0000E00010001A36F000E0001A26F2F
:100FB000000E00010001A56F010E0001A46F0001E9
:100FC000D7EC1EF0000E00010001B86F000E00010A
:100FD000B76F00010001B851800A800F320ED8B4FB
:100FE000B75DD8A001D001D002D012D011D000013D
:100FF0000001B74BB82B00010001B851800A800FE7
:10100000320ED8B4B75DD8A001D001D0F0D700D04F
:1010100045EC20F0CFD10A0E00010001A95D000EC1
:101020000001AA59D8A001D001D0C4D1A9C0A2F012
:10103000AAC0A3F0000E00010001A56F0A0E000176
:10104000A46F00011EEC1DF00001A2C0AFF0000172
:10105000A3C0B0F0A9C0A2F0AAC0A3F0000E000186
:101060000001A56F0A0E0001A46F000185EC1BF0C2
:101070000001A2C0B1F00001A3C0B2F0AFC0A2F065
:10108000B0C0A3F0000E00010001A56F000E00012A
:10109000A46F0001D7EC1EF0000E00010001B86F34
:1010A000000E0001B76F00010001B851800A800FE7
:1010B000320ED8B4B75DD8A001D001D002D012D082
:1010C00011D000010001B74BB82B00010001B8514D
:1010D000800A800F320ED8B4B75DD8A001D001D0FD
:1010E000F0D700D0B1C0A2F0B2C0A3F0000E000152
:1010F0000001A56F010E0001A46F0001D7EC1EF0E6
:10110000000E00010001B86F000E0001B76F000172
:101110000001B851800A800F320ED8B4B75DD8A054
:1011200001D001D002D012D011D000010001B74B84
:10113000B82B00010001B851800A800F320ED8B4DC
:10114000B75DD8A001D001D0F0D700D045EC20F099
:1011500031D130D12FD10A0E00010001A95D000E5E
:101160000001AA59D8B001D001D06ED0A9C0A2F018
:10117000AAC0A3F0000E00010001A56F020E00013D
:10118000A46F0001D7EC1EF0000E00010001B86F43
:10119000000E0001B76F00010001B851800A800FF6
:1011A000320ED8B4B75DD8A001D001D002D012D091
:1011B00011D000010001B74BB82B00010001B8515C
:1011C000800A800F320ED8B4B75DD8A001D001D00C
:1011D000F0D700D0000E00010001A36F000E000147
:1011E000A26F000E00010001A56F030E0001A46FA5
:1011F0000001D7EC1EF0000E00010001B86F000ED8
:101200000001B76F00010001B851800A800F320E53
:10121000D8B4B75DD8A001D001D002D012D011D07F
:1012200000010001B74BB82B00010001B851800A42
:10123000800F320ED8B4B75DD8A001D001D0F0D75E
:1012400000D045EC20F0B6D00A0E00010001A95DE7
:10125000000E0001AA59D8A001D001D0ABD0A9C07E
:10126000A2F0AAC0A3F0000E00010001A56F0A0EB3
:101270000001A46F00011EEC1DF00001A2C0B3F03C
:101280000001A3C0B4F0A9C0A2F0AAC0A3F0000E50
:1012900000010001A56F0A0E0001A46F000185EC9A
:1012A0001BF00001A2C0B5F00001A3C0B6F0B3C0AE
:1012B000A2F0B4C0A3F0000E00010001A56F020E61
:1012C0000001A46F0001D7EC1EF0000E0001000128
:1012D000B86F000E0001B76F00010001B851800A1D
:1012E000800F320ED8B4B75DD8A001D001D002D0A3
:1012F00012D011D000010001B74BB82B0001000142
:10130000B851800A800F320ED8B4B75DD8A001D092
:1013100001D0F0D700D0B5C0A2F0B6C0A3F0000E47
:1013200000010001A56F030E0001A46F0001D7ECBE
:101330001EF0000E00010001B86F000E0001B76F33
:1013400000010001B851800A800F320ED8B4B75D99
:10135000D8A001D001D002D012D011D000010001DC
:10136000B74BB82B00010001B851800A800F320E34
:10137000D8B4B75DD8A001D001D0F0D700D045ECEB
:1013800020F018D017D016D015D00001ABC0ADF0AA
:101390000001ACC0AEF00001AE51000AD8B401D0DB
:1013A00009D00001AD51000AD8B4BCD5010AD8B4A7
:1013B000D2D600D01200000E00010001AD6F000E69
:1013C0000001AC6F32503110D8A401D001D019D136
:1013D000FF0E3A240001A86FFF0E3B200001A96F09
:1013E00029500001A85D2A500001A959D8A001D0B8
:1013F00001D0F9D0FF0E38240001A86FFF0E39206C
:101400000001A96F33500001A85D34500001A959B3
:10141000D8A001D001D0F5D033C0A8F034C0A9F0D5
:101420000001D890A837A9370001D890A837A9376C
:101430000101000E0001A825D96E0101010E000175
:10144000A921DA6EDF5000010001AA6F33C0A8F0B5
:1014500034C0A9F00001D890A837A9370001D8906E
:10146000A837A937010E0001A827000EA923010102
:10147000000E0001A825D96E0101010E0001A9216D
:10148000DA6EDF50206EA1EC1EF020C0AEF021C05D
:10149000AFF033C0A8F034C0A9F00001D890A8374D
:1014A000A9370001D890A837A937020E0001A82754
:1014B000000EA9230101000E0001A825D96E01012B
:1014C000010E0001A921DA6EDF5000010001AB6FAF
:1014D00033C0A8F034C0A9F00001D890A837A937CC
:1014E0000001D890A837A937030E0001A827000EE5
:1014F000A9230101000E0001A825D96E0101010EEA
:101500000001A921DA6EDF50206EA1EC1EF020C090
:10151000B0F021C0B1F000010001AE5100010001A6
:10152000B05D00010001AF5100010001B159D8A028
:1015300001D001D005D0AEC0ACF0AFC0ADF016D038
:1015400000010001AE5100010001B05D0001000189
:10155000AF5100010001B159D8B001D001D006D07F
:10156000B0C0ACF0B1C0ADF001D000D0334A342AE5
:10157000FF0E38240001A86FFF0E39200001A96F6B
:1015800033500001A85D34500001A959D8B001D0F2
:1015900001D007D0294A2A2A000E346E000E336E7D
:1015A00000D00001A86F000E00010001A36F000130
:1015B000A851AAC0A4F00001D3EC1FF00001A86F4D
:1015C000010E00010001A36F0001A851ABC0A4F0FF
:1015D0000001D3EC1FF0ACC020F0ADC021F0E3EC73
:1015E0001BF00FD00ED0000E326E010E316E000EC9
:1015F0002A6E000E296E000E346E000E336E01D07E
:1016000000D031043210D8A401D001D019D1FF0E7E
:101610003E240001A86FFF0E3F200001A96F2B5050
:101620000001A85D2C500001A959D8A001D001D01B
:10163000F9D0FF0E3C240001A86FFF0E3D200001F1
:10164000A96F33500001A85D34500001A959D8A0FA
:1016500001D001D0F5D033C0A8F034C0A9F000010A
:10166000D890A837A9370001D890A837A937020128
:10167000000E0001A825D96E0201020E0001A92169
:10168000DA6EDF5000010001AA6F33C0A8F034C049
:10169000A9F00001D890A837A9370001D890A83741
:1016A000A937010E0001A827000EA9230201000E90
:1016B0000001A825D96E0201020E0001A921DA6EEF
:1016C000DF50206EA1EC1EF020C0AEF021C0AFF0C4
:1016D00033C0A8F034C0A9F00001D890A837A937CA
:1016E0000001D890A837A937020E0001A827000EE4
:1016F000A9230201000E0001A825D96E0201020EE5
:101700000001A921DA6EDF5000010001AB6F33C088
:10171000A8F034C0A9F00001D890A837A93700017B
:10172000D890A837A937030E0001A827000EA923D7
:101730000201000E0001A825D96E0201020E00016F
:10174000A921DA6EDF50206EA1EC1EF020C0B0F0AF
:1017500021C0B1F000010001AE5100010001B05DF7
:1017600000010001AF5100010001B159D8A001D022
:1017700001D005D0AEC0ACF0AFC0ADF016D00001C6
:101780000001AE5100010001B05D00010001AF5148
:1017900000010001B159D8B001D001D006D0B0C0CD
:1017A000ACF0B1C0ADF001D000D0334A342AFF0E06
:1017B0003C240001A86FFF0E3D200001A96F3350AB
:1017C0000001A85D34500001A959D8B001D001D062
:1017D00007D02B4A2C2A000E346E000E336E00D038
:1017E0000001A86F000E00010001A36F0001A851C5
:1017F000AAC0A4F00001D3EC1FF00001A86F010EF5
:1018000000010001A36F0001A851ABC0A4F00001CA
:10181000D3EC1FF0ACC020F0ADC021F0E3EC1BF026
:101820000FD00ED0000E326E000E316E000E2C6EF8
:10183000000E2B6E000E346E000E336E01D000D001
:101840001200000E00010001B26F000E0001B16F26
:1018500000010001E451E311D8B401D001D002D05D
:1018600032D231D28C8E0A0E00010001A95D000E29
:101870000001AA59D8B001D001D06ED0A9C0A2F001
:10188000AAC0A3F0000E00010001A56F020E000126
:10189000A46F0001D7EC1EF0000E00010001B26F32
:1018A000000E0001B16F00010001B251800A800FEB
:1018B000320ED8B4B15DD8A001D001D002D012D080
:1018C00011D000010001B14BB22B00010001B25157
:1018D000800A800F320ED8B4B15DD8A001D001D0FB
:1018E000F0D700D0000E00010001A36F000E000130
:1018F000A26F000E00010001A56F030E0001A46F8E
:101900000001D7EC1EF0000E00010001B26F000EC6
:101910000001B16F00010001B251800A800F320E48
:10192000D8B4B15DD8A001D001D002D012D011D06E
:1019300000010001B14BB22B00010001B251800A3D
:10194000800F320ED8B4B15DD8A001D001D0F0D74D
:1019500000D045EC20F09FD00A0E00010001A95DE7
:10196000000E0001AA59D8A001D001D094D0A9C07E
:10197000A2F0AAC0A3F0000E00010001A56F0A0E9C
:101980000001A46F00011EEC1DF00001A2C0ADF02B
:101990000001A3C0AEF0A9C0A2F0AAC0A3F0000E3F
:1019A00000010001A56F0A0E0001A46F000185EC83
:1019B0001BF00001A2C0AFF00001A3C0B0F0ADC0A9
:1019C000A2F0AEC0A3F0000E00010001A56F020E50
:1019D0000001A46F0001D7EC1EF0000E0001000111
:1019E000B26F000E0001B16F00010001B251800A18
:1019F000800F320ED8B4B15DD8A001D001D002D092
:101A000012D011D000010001B14BB22B0001000136
:101A1000B251800A800F320ED8B4B15DD8A001D087
:101A200001D0F0D700D0AFC0A2F0B0C0A3F0000E3C
:101A300000010001A56F030E0001A46F0001D7ECA7
:101A40001EF0000E00010001B26F000E0001B16F28
:101A500000010001B251800A800F320ED8B4B15D8E
:101A6000D8A001D001D002D012D011D000010001C5
:101A7000B14BB22B00010001B251800A800F320E2F
:101A8000D8B4B15DD8A001D001D0F0D700D045ECDA
:101A900020F001D000D00A0E00010001AB5D000E65
:101AA0000001AC59D8B001D001D06ED0ABC0A2F0CB
:101AB000ACC0A3F0000E00010001A56F000E0001F4
:101AC000A46F0001D7EC1EF0000E00010001B26F00
:101AD000000E0001B16F00010001B251800A800FB9
:101AE000320ED8B4B15DD8A001D001D002D012D04E
:101AF00011D000010001B14BB22B00010001B25125
:101B0000800A800F320ED8B4B15DD8A001D001D0C8
:101B1000F0D700D0000E00010001A36F000E0001FD
:101B2000A26F000E00010001A56F010E0001A46F5D
:101B30000001D7EC1EF0000E00010001B26F000E94
:101B40000001B16F00010001B251800A800F320E16
:101B5000D8B4B15DD8A001D001D002D012D011D03C
:101B600000010001B14BB22B00010001B251800A0B
:101B7000800F320ED8B4B15DD8A001D001D0F0D71B
:101B800000D045EC20F09FD00A0E00010001AB5DB3
:101B9000000E0001AC59D8A001D001D094D0ABC048
:101BA000A2F0ACC0A3F0000E00010001A56F0A0E68
:101BB0000001A46F00011EEC1DF00001A2C0ADF0F9
:101BC0000001A3C0AEF0ABC0A2F0ACC0A3F0000E09
:101BD00000010001A56F0A0E0001A46F000185EC51
:101BE0001BF00001A2C0AFF00001A3C0B0F0ADC077
:101BF000A2F0AEC0A3F0000E00010001A56F000E20
:101C00000001A46F0001D7EC1EF0000E00010001DE
:101C1000B26F000E0001B16F00010001B251800AE5
:101C2000800F320ED8B4B15DD8A001D001D002D05F
:101C300012D011D000010001B14BB22B0001000104
:101C4000B251800A800F320ED8B4B15DD8A001D055
:101C500001D0F0D700D0AFC0A2F0B0C0A3F0000E0A
:101C600000010001A56F010E0001A46F0001D7EC77
:101C70001EF0000E00010001B26F000E0001B16FF6
:101C800000010001B251800A800F320ED8B4B15D5C
:101C9000D8A001D001D002D012D011D00001000193
:101CA000B14BB22B00010001B251800A800F320EFD
:101CB000D8B4B15DD8A001D001D0F0D700D045ECA8
:101CC00020F001D000D01200000E00010001D46FFE
:101CD000000E0001D36F00010001CD690001CE6943
:101CE000000E00010001EC6F010E0001EB6F000E11
:101CF00000010001CC6F010E0001CB6F000E00014E
:101D00000001D06F000E0001CF6F00D093EC1FF0E8
:101D100021502010D8A401D001D097D0000100019B
:101D2000D451D311D8A401D001D015D0010E216E09
:101D30002C0E206EE3EC1BF00001F3EC13F000011D
:101D4000B9C0D3F00001BAC0D4F000010001CD69E0
:101D50000001CE697AD000010001D305D411D8A4C6
:101D600001D001D02ED0010E216E2C0E206EE3EC9E
:101D70001BF000010001E651E511D8A401D001D00B
:101D80000CD08A828A94000E00010001E66F010ED9
:101D90000001E56FCFEC14F058D000010001E651CE
:101DA000E511D8B401D001D050D08A928A84000EB7
:101DB00000010001E66F000E0001E56F46D045D03E
:101DC00044D000010001D351020AD411D8A401D09B
:101DD00001D00CD04BEC20F062EC20F0010E216E13
:101DE0002C0E206EE3EC1BF00CD12FD00001000173
:101DF000D051CF11D8A401D001D00AD055EC20F099
:101E0000000E00010001D06F010E0001CF6F13D052
:101E100000010001D051CF11D8B401D001D00BD0B6
:101E200059EC20F0000E00010001D06F000E0001FF
:101E3000CF6F01D000D0010E216E2C0E206EE3EC8E
:101E40001BF003D002D001D000D000010001DE5110
:101E5000DD11D8B401D001D04FD00001000E216EA9
:101E60000001F10E206E08EC1FF02050000100016F
:101E7000D327215000010001D423100EF66E0F0E5F
:101E8000F76E000EF86E0900F5CFC8F00900F5CF27
:101E9000C9F00001C951800A0001CA6F00010001A8
:101EA000D3510001C85D00010001D451800A000136
:101EB000CA59D8B001D001D008D0000E00010001ED
:101EC000D46F000E0001D36F17D000010001D4AF12
:101ED00001D001D011D0100EF66E0F0EF76E000E6D
:101EE000F86E09000001F5CFD3F00A000001F5CF2C
:101EF000D4F002D001D000D000010001CE51000189
:101F00000001D41906E100010001CD5100010001DA
:101F1000D319D8B401D001D0F9D6D3C0CDF0D4C0F4
:101F2000CEF04BEC20F009D0898A1FD08A921DD0C8
:101F30008A8C1BD08D8219D018D00001D3C0C8F074
:101F40000001D4C0C9F00001C951000AD8B401D0C1
:101F5000F1D70001C851000AD8B4E6D7010AD8B4B5
:101F6000E5D7030AD8B4E4D7E5D700010001CC5186
:101F7000CB11D8A401D001D03AD0000E000100014D
:101F8000D26F000E0001D16F000E00010001D26F70
:101F9000000E0001D16F00010001D251800A7F0FB5
:101FA000F40ED8B4D15DD8A001D001D002D012D0A7
:101FB00011D000010001D14BD22B00010001D25100
:101FC000800A7F0FF40ED8B4D15DD8A001D001D023
:101FD000F0D700D0000E00010001F16F81380F0B27
:101FE000030B00010001F1132DEC20F000D0000ED6
:101FF00000010001CC6F000E0001CB6F87D686D6A2
:1020000085D612000F0E0001BE6F0001B8C0BFF0F0
:102010000001B9C0C0F00001BAC0C1F00001BE2982
:102020000001C26F05D00001D890C133C033BF3367
:102030000001C22FF8D70001BF5100010001C36F9A
:102040000001C36701D001D00ED0000E00010001D5
:10205000B86F000E00010001B96F000E0001000111
:10206000BA6FE4D0E3D00F0E0001BE6F0001BBC019
:10207000BFF00001BCC0C0F00001BDC0C1F0000154
:10208000BE290001C26F05D00001D890C133C03312
:10209000BF330001C22FF8D70001BF51000100017A
:1020A000C86F0001C86701D001D00ED0000E00013A
:1020B0000001B86F000E00010001B96F000E0001B1
:1020C0000001BA6FB3D0B2D000010001C8517B0F3C
:1020D00000010001C327BAC0C8F00001BD510001D2
:1020E0000001C81B800E00010001C817000100019B
:1020F000B98F00010001BC8FFF0E00010001BB176A
:10210000FF0E00010001BC17000E00010001BD1709
:10211000000E00010001C46F000E00010001C56F38
:10212000000E00010001C66F0001BE6F070E000126
:102130000001C76F0001BE5100D000010001B8A12D
:1021400001D001D013D000010001BB5100010001FA
:10215000C42700010001BC5100010001C52300019A
:102160000001BD5100010001C62300D00001D8903C
:102170000001BA330001B9330001B8330001D8902F
:102180000001BB370001BC370001BD370001000171
:10219000C72FD3D700D00001BE6F090E0001000188
:1021A000C76F0001BE5100D000010001B8A101D0ED
:1021B00001D013D000010001BB5100010001C42770
:1021C00000010001BC5100010001C5230001000114
:1021D000BD5100010001C62300D00001D8900001CC
:1021E000BA330001B9330001B8330001D8900001BF
:1021F000C6330001C5330001C43300010001C72FFD
:10220000D3D700D0C4C0A2F0C5C0A3F0C6C0A4F00C
:10221000C3C0A5F0C8C0A6F0000134EC17F0A2C0FE
:10222000B8F0A3C0B9F0A4C0BAF000D012000F0EED
:102230000001AD6F0001A7C0AEF00001A8C0AFF073
:102240000001A9C0B0F00001AD290001B16F05D0B7
:102250000001D890B033AF33AE330001B12FF8D7BF
:102260000001AE5100010001B66F0001B66701D058
:1022700001D00ED0000E00010001A76F000E00017A
:102280000001A86F000E00010001A96FCAD0C9D0DB
:102290000F0E0001AD6F0001AAC0AEF00001ABC08F
:1022A000AFF00001ACC0B0F00001AD290001B16F8A
:1022B00005D00001D890B033AF33AE330001B12F59
:1022C000F8D70001AE5100010001B76F0001B767F8
:1022D00001D001D00ED0000E00010001A76F000E4A
:1022E00000010001A86F000E00010001A96F99D044
:1022F00098D0000E00010001B36F000E0001000134
:10230000B46F000E00010001B56F00010001B7516C
:10231000890F00010001B65FA9C0B7F00001AC5100
:1023200000010001B71B800E00010001B71700017A
:102330000001A88FFF0E00010001A717FF0E00018A
:102340000001A817000E00010001A91700010001FB
:10235000AB8FFF0E00010001AA17FF0E0001000164
:10236000AB17000E00010001AC170001AD6F180E95
:1023700000010001B26F0001AD510001D8900001D1
:10238000B3370001B4370001B53700010001AA518D
:1023900000010001A75D00010001AB510001000137
:1023A000A85900010001AC5100010001A959D8A0B1
:1023B00001D001D015D000010001AA510001000197
:1023C000A75F00010001AB5100010001A85B000103
:1023D0000001AC5100010001A95B00010001B381C3
:1023E0000001D8900001A7370001A8370001A937E4
:1023F00000010001B22FC1D700D0B3C0A2F0B4C019
:10240000A3F0B5C0A4F0B6C0A5F0B7C0A6F0000117
:1024100034EC17F0A2C0A7F0A3C0A8F0A4C0A9F0A4
:1024200000D012000F0E0001A66F0001A2C0A7F09D
:102430000001A3C0A8F00001A4C0A9F00001A629D2
:102440000001AA6F05D00001D890A933A833A733A3
:102450000001AA2FF8D70001A75100010001B06FB9
:102460000001B06701D001D00FD0000E00010001C3
:10247000A26F000E0001A36F000E0001A46F000EFA
:102480000001A56FC0D0BFD0170E0001A66F0001DC
:10249000A2C0A7F00001A3C0A8F00001A4C0A9F049
:1024A0000001A6290001AA6F05D00001D890A93328
:1024B000A833A7330001AA2FF8D70001A7510001C4
:1024C0000001AB6F00010001A38FFF0E00010001AE
:1024D000A217FF0E00010001A317000E000100016A
:1024E000A41700010001A25100010001AC6F00011E
:1024F0000001A3510001AD6F0001A4510001AE6FB6
:102500000001AF6B8E0E00010001B05F0001000101
:10251000B0AF01D001D029D000010001B051800A34
:102520008F0FD8B001D001D010D0000E00010001F3
:10253000A26F000E0001A36F000E0001A46F000E39
:102540000001A56F60D05FD000D00001D8900001DD
:10255000AF330001AE330001AD330001AC330001F5
:102560000001B03FF2D72ED02DD0170E0001000190
:10257000B06501D001D01ED0000E00010001A26F95
:10258000000E0001A36F000E0001A46F000E0001F9
:10259000A56F39D038D00ED00001D8900001AC37EB
:1025A0000001AD370001AE370001AF370001000177
:1025B000B00700D000010001B06701D001D0ECD716
:1025C00001D000D000010001AB51D8B401D001D03E
:1025D00011D000010001AF1F0001AE1F0001AD1FAF
:1025E0000001AC6D000E0001AD230001AE2300011F
:1025F000AF2300D0ACC0A2F0ADC0A3F0AEC0A4F039
:10260000AFC0A5F000D01200D08EF28EF28CF28A0C
:10261000F184A380A5800F010F0149899380F2887E
:10262000F19CA49002EC20F024EC20F010EC20F0BF
:10263000F3EC1FF0B1EC1FF00101010E00010001ED
:10264000AB6F0101DA0E0001AA6F000E000100015C
:10265000AD6F000E0001AC6F000E00010001AF6F06
:10266000000E0001AE6F0001ECEC1DF00101010E47
:1026700000010001A96F0101DE0E0001A86F000E2C
:1026800000010001AB6F000E0001AA6F000E0001F7
:102690000001AD6F010E0001AC6F0001ABEC1DF04D
:1026A0003EEC20F081380F0B030B00010001F11309
:1026B0008D80000E216E640E206EE3EC1BF08D9079
:1026C0008D82000E216E640E206EE3EC1BF08D9265
:1026D0008D84000E216E640E206EE3EC1BF08D9451
:1026E000000E01010101D96F000E0101D86F00D069
:1026F00000010001EE51ED11D8B401D001D04FD04E
:102700000101010E216E0101E20E206E66EC1DF04A
:10271000E5C120F0ADEC1AF020C0D4F121C0D5F114
:10272000E4C120F0ADEC1AF020C0D6F121C0D7F101
:10273000000E01010101D96F000E0101D86F880E52
:1027400001010101D85D130E0101D959D8A001D0B2
:1027500001D002D01CD01BD0D4C1A9F0D5C1AAF0A1
:10276000D6C1ABF0D7C1ACF0000121EC0CF00101F7
:102770000101D84BD92B880E01010101D85D130E40
:102780000101D959D8A001D001D0E6D700D0000E60
:1027900000010001EE6F000E0001ED6F00D093EC20
:1027A0001FF021502010D8A401D001D00DD045EC4D
:1027B00020F0010E216E2C0E206EE3EC1BF05DEC80
:1027C00020F064EC0EF000D000010001E051DF11B8
:1027D000D8B401D001D08CD782EC1CF089D788D72F
:1027E00087D751EF00F0000E00010001BD6F000E11
:1027F0000001BC6F000E00010001C36F000E00015C
:10280000C26F000E00010001C16F000E0001C06F19
:10281000000E00010001BF6F000E0001BE6F00D06E
:1028200000010001DE51DD11D8B401D001D043D048
:102830000001000E216E0001F10E206E08EC1FF069
:10284000205000010001C227215000010001C323D4
:10285000000E00010001BF6F000E0001BE6F0001FD
:102860000001BF51800A7F0FF40ED8B4BE5DD8A01E
:1028700001D001D002D012D011D000010001BE4B16
:10288000BF2B00010001BF51800A7F0FF40ED8B4A6
:10289000BE5DD8A001D001D0F0D700D0000E00015D
:1028A0000001F16F81380F0B030B00010001F113E0
:1028B0002DEC20F000D0C2C0A9F0C3C0AAF0C0C067
:1028C000ABF0C1C0ACF000018AEC07F093EC1FF054
:1028D00021502010D8A401D001D0A2D7010E216E22
:1028E0002C0E206EE3EC1BF045EC20F00001000103
:1028F000C151C011D8A401D001D01CD0C2C020F059
:10290000C3C021F03BEC19F000010001C66F000EBE
:1029100000010001C16F010E0001C06F000E000137
:102920000001F16F000E00010001C36F000E0001F5
:10293000C26F76D700010001C005C111D8A401D033
:1029400001D06ED7C2C020F0C3C021F03BEC19F01B
:1029500000010001C76F0001BB6F000E0001000104
:10296000C56F0001BB5104D05BD75AD759D758D790
:102970000001000E216E0001C40E206E0001BB6F2D
:10298000010E226E0001BB519EEC15F0000E0001FD
:102990000001BA6F000E0001B96F00D01200000EE6
:1029A00000010001BB6F000E0001BA6F000E0001B4
:1029B0000001C16F000E0001C06F000E0001000198
:1029C000BF6F000E0001BE6F000E00010001BD6F61
:1029D000000E0001BC6F00D000010001DE51DD11CE
:1029E000D8B401D001D043D00001000E216E000107
:1029F000F10E206E08EC1FF0205000010001C027EE
:102A0000215000010001C123000E00010001BD6F33
:102A1000000E0001BC6F00010001BD51800A7F0F54
:102A2000F40ED8B4BC5DD8A001D001D002D012D031
:102A300011D000010001BC4BBD2B00010001BD51B4
:102A4000800A7F0FF40ED8B4BC5DD8A001D001D0AD
:102A5000F0D700D0000E00010001F16F81380F0B9C
:102A6000030B00010001F1132DEC20F000D0C0C0D9
:102A7000A9F0C1C0AAF0BEC0ABF0BFC0ACF000016D
:102A80008AEC07F093EC1FF021502010D8A401D05D
:102A900001D0A2D7010E216E2C0E206EE3EC1BF0AC
:102AA00045EC20F000010001BF51BE11D8A401D0B7
:102AB00001D01CD0C0C020F0C1C021F03BEC19F007
:102AC00000010001C46F000E00010001BF6F010E84
:102AD0000001BE6F000E00010001F16F000E000149
:102AE0000001C16F000E0001C06F76D70001000128
:102AF000BE05BF11D8A401D001D06ED7C0C020F050
:102B0000C1C021F03BEC19F000010001C56F0001CC
:102B1000B96F000E00010001C36F0001B95104D06C
:102B20005BD75AD759D758D70001000E216E000144
:102B3000C20E206EA5EC18F000D012000001A26FAA
:102B4000000E00010001A46F0001A25120EE02F06E
:102B50002050D9262150DA22DF500001A26F5A0EF0
:102B60000001A25DD8B001D001D0B5D020EE01F0B7
:102B70002050D9262150DA22DF500001A26F5A0ED0
:102B80000001A25DD8B001D001D0A5D020EE03F0A5
:102B90002050D9262150DA22240EDF6401D001D042
:102BA00002D099D098D020EE02F02050D9262150A2
:102BB000DA22DF5000010001A76F20EE01F0205063
:102BC000D9262150DA22DF5000010001A66F2250E1
:102BD000D8B401D001D002D0F29C00D0000E0F0179
:102BE0003FBB010E00010001A56F0001A56701D0E8
:102BF00001D003D01AEC20F000D0000E0F013FBF2F
:102C0000010E00010001A36F0001A351D8B401D04F
:102C100001D00BD0000E0F0147BF010E00010001D3
:102C2000A46F0F010F013F9F00D0FC0E0F010F0199
:102C30003F170F010F013F813ACFA8F03BCFA9F01A
:102C400020EE03F02050D9262150DA22DF50000177
:102C50000001A86FFC0E0F010F013F170F010F01BC
:102C60003F81A8C03AFFA9C03BFFA6C03AFFA7C05A
:102C70003BFF00010001A351D8B401D001D019D00D
:102C80000F010F013F8F00010001A451D8B401D002
:102C900001D004D00F010F01478F00D000010001C7
:102CA000A551D8B401D001D00FD01AEC20F00CD02F
:102CB0000BD000010001A56701D001D005D00F01A4
:102CC0000F013F9B01D000D02250D8B401D001D0D9
:102CD00002D0F28C00D01200EACF15F0E1CF16F04E
:102CE000E2CF17F0D9CF18F0DACF19F0F3CF1AF0FE
:102CF000F4CF1BF0F6CF1CF0F7CF1DF0F8CF1EF08D
:102D0000F5CF1FF0F2A801D001D028D0F2A201D057
:102D100001D024D000010001E051DF11D8B401D06E
:102D200001D012D0000E00010001E06F000E000182
:102D3000DF6F000E00010001EE6F010E0001ED6F6C
:102D4000F29275D074D00AD0000E00010001EE6F2F
:102D5000010E0001ED6FF2926AD069D0F2AA01D0A3
:102D600001D00ED0F2A401D001D00AD0000E000193
:102D70000001E46F000E0001E36FF29458D057D0C9
:102D8000F2A601D001D041D0F2A001D001D03DD0B7
:102D900000010001DE51DD11D8B401D001D003D013
:102DA000F29045D032D000010001F145E846FC0B1D
:102DB00000010001F16F81380F0B030B00010001CE
:102DC000F113CF0E00010001F16501D001D01AD03E
:102DD00000010001F151E10AD8B401D001D009D0BD
:102DE00000010001F151D20AD8A401D001D007D0CE
:102DF00000D036EC20F0F2901AD019D006D0F29024
:102E000016D003D0F29013D000D0A3A001D001D0EF
:102E10000ED0A4A001D001D00AD0000E0001000104
:102E2000E06F010E0001DF6FA49001D000D01FC041
:102E3000F5FF1EC0F8FF1DC0F7FF1CC0F6FF1BC04A
:102E4000F4FF1AC0F3FF19C0DAFF18C0D9FF17C08A
:102E5000E2FF16C0E1FF15C0EAFF14C0E9FF13C08E
:102E6000FBFF12C0FAFF110000010001A551D8B408
:102E700001D001D00CD000010001A2510001A3112A
:102E80000001A411D8A401D001D01CD000D0000EA4
:102E900000010001A26F000E00010001A36F000EEF
:102EA00000010001A46F99D098D00CD0000100015E
:102EB000A52B0001D8900001A4330001A333000129
:102EC000A23300D0000E00010001A215206E000EFA
:102ED00000010001A315216EFE0E00010001A415E2
:102EE000226E205021102210D8A401D001D0DED7AC
:102EF00019D018D000010001A52B010E000100011E
:102F0000A227000E00010001A323000E0001000112
:102F1000A4230001D8900001A4330001A3330001D1
:102F2000A23300D0000E00010001A215206E000E99
:102F300000010001A315216EFF0E00010001A41580
:102F4000226E205021102210D8A401D001D0D2D757
:102F50000DD00CD000010001A5070001D8900001A0
:102F6000A2370001A3370001A43700D000010001FF
:102F7000A3AF01D001D0EED700010001A5B101D06F
:102F800001D004D000010001A39F00D00001D8901F
:102F9000A53300010001A551226E216A206A20504C
:102FA00000010001A213215000010001A3132250CF
:102FB00000010001A41300010001A651D8B401D002
:102FC00001D004D000010001A48F00D0A2C0A2F063
:102FD000A3C0A3F0A4C0A4F000D01200000E000112
:102FE0000001D16FC80E00010001D26F420E000136
:102FF0000001D36FD1C0A2F0D2C0A3F0D3C0A4F01F
:10300000000E00010001A56F700E00010001A66F07
:10301000420E00010001A76F0001C3EC19F0D8B007
:1030200001D001D002D090D08FD0000E000100015D
:10303000AA6F700E00010001AB6F420E000100018B
:10304000AC6FD1C0A7F0D2C0A8F0D3C0A9F00001E6
:1030500017EC11F0A7C0CEF0A8C0CFF0A9C0D0F0F7
:10306000CEC0AAF0CFC0ABF0D0C0ACF0000E0001D3
:103070000001A76F800E00010001A86F3F0E000144
:103080000001A96F000117EC11F0A7C0B8F0A8C0AB
:10309000B9F0A9C0BAF0000E00010001BB6F7A0EB2
:1030A00000010001BC6F440E00010001BD6F000172
:1030B00002EC10F0B8C0CBF0B9C0CCF0BAC0CDF083
:1030C000CBC0A2F0CCC0A3F0CDC0A4F0000112ECA4
:1030D00012F0A2C0E7F0A3C0E8F0D8900001000110
:1030E000E735256E00010001E835266E0001E7C0D6
:1030F000C9F00001E8C0CAF00001D890C937CA374A
:103100000001D890C937CA37C9C02FF0CAC030F003
:10311000D89000010001E831246E00010001E73180
:10312000236E0001E7C0C9F00001E8C0CAF0000149
:10313000D890CA33C9330001D890CA33C933C9C043
:103140002DF0CAC02EF000D0120020EE02F0205068
:10315000D9262150DA22DF50226E5A0E225CD8B0D6
:1031600001D001D087D020EE01F02050D926215087
:10317000DA22DF50226E5A0E225CD8B001D001D084
:1031800079D020EE03F02050D9262150DA22240EE7
:10319000DF6401D001D002D06DD06CD020EE02F0FF
:1031A0002050D9262150DA22DF5000010001A56FFE
:1031B00020EE01F02050D9262150DA22DF50000104
:1031C0000001A46F000E0F013FBB010E00010001C2
:1031D000A26F0001A26701D001D003D01AEC20F049
:1031E00000D0000E0F0147BF010E00010001A36FC8
:1031F0000001A351D8B401D001D004D00F010F01B8
:10320000479F00D0FC0E0F010F0147170F010F0160
:10321000478144CFA6F045CFA7F020EE03F0205021
:10322000D9262150DA22DF5000010001A66FFC0EE2
:103230000F010F0147170F010F014781A6C044FF7F
:10324000A7C045FFA4C044FFA5C045FF0001000181
:10325000A351D8B401D001D003D00F010F01478F83
:1032600000010001A26701D001D004D00F010F01BD
:103270003F9B00D01200640E205C000E2158D8A0A5
:1032800001D001D003D0FF0E7DD07CD0226E000E85
:1032900000010001A46F2250000E00010001A36F85
:1032A000000E0001A26F00010001A351800A800FEF
:1032B000080ED8B4A25DD8A001D001D002D05ED053
:1032C0005DD020AE01D001D00CD000010001A4518E
:1032D0000001A42500010001A46F00010001A481E8
:1032E00008D000010001A4510001A4250001000143
:1032F000A46FD8902034206E2134216EA4C022F017
:103300000F0E2216050E225CD8A001D001D00DD0E0
:1033100000010001A251070AA311D8B401D001D0C5
:1033200004D0030E00010001A427A4C022F0F00E77
:103330002216500E225CD8A001D001D00ED0000180
:103340000001A251070AA311D8B401D001D005D0C1
:10335000300E00010001A42700D000010001A24BA3
:10336000A32B00010001A351800A800F080ED8B4DE
:10337000A25DD8A001D001D0A4D700D000010001E7
:10338000A45100D0120000010001A4AF01D001D06F
:103390001ED00001A2C020F00001A3C021F0000156
:1033A000A4C022F0201E211E221E202A000E21224F
:1033B0002222000E202400010001A26F000E212015
:1033C0000001A36F800E22200001A46F00D0000135
:1033D0000001A7AF01D001D01ED00001A5C020F090
:1033E0000001A6C021F00001A7C022F0201E211E6E
:1033F000221E202A000E21222222000E202400015B
:103400000001A56F000E21200001A66F800E222072
:103410000001A76F00D0000E00010001A21B000EEA
:1034200000010001A31B800E00010001A41B000E7F
:1034300000010001A51B000E00010001A61B800E6B
:1034400000010001A71B00010001A55100010001BE
:10345000A25D00010001A65100010001A359000175
:103460000001A75100010001A459D8B001D001D03A
:1034700002D0D89003D0D88001D000D0120047717C
:103480003471426538714465006547713B7142652E
:103490003F714465006547653371496500654B655B
:1034A0003671476500654C653B714B6500654C6541
:1034B0003F714E65006547713171426534714465F5
:1034C00000654771387142653B71446500654C6524
:1034D0002F714B650065496533714765006542652D
:1034E00036653F65006540653B7142650065477123
:1034F0003471426538714465006547713B714265BE
:103500003F714465006547653371476500654965EE
:1035100036714B65006547653B71426500654465E2
:103520003F71426500654771317147653471466589
:103530000065476538714265006544653B714665C5
:1035400000654C652F714B6500654C6533714E65A8
:1035500000654771367146713B71100E206001D0D5
:1035600001D005D020C020F0216A64D063D00F0EB6
:10357000206401D001D00ED0200E206001D001D0F7
:1035800009D0FA0E2024206E216AFF0E212252D08B
:1035900051D050D01F0E206401D001D00ED0300E7B
:1035A000206001D001D009D0F40E2024206E216AC1
:1035B000FF0E21223FD03ED03DD02F0E206401D0FF
:1035C00001D00ED0400E206001D001D009D0EE0E07
:1035D0002024206E216AFF0E21222CD02BD02AD04D
:1035E0003F0E206401D001D00ED0500E206001D0DB
:1035F00001D009D0E80E2024206E216AFF0E21227E
:1036000019D018D017D04F0E206401D001D012D09D
:10361000600E206001D001D00DD0E20E2024206E7B
:10362000216AFF0E212206D005D004D003D002D09B
:1036300001D000D012004E713471507140714A6552
:1036400036714B65006500654271476500654A65E6
:1036500033714965006547713F714771387147653E
:103660004471496500714A7131714A653D7149651E
:10367000006547653671496500654B6542714E6569
:10368000006550652F714B6500654E653B7149655E
:1036900000654B652F714765006549653B7147655E
:1036A00000654B7134714E714071506536714B65D8
:1036B00000654E654271496500654B65337147652C
:1036C000006549653F714B6500654965387147651F
:1036D000006544654471476500654A71317147650D
:1036E0003D71496500654B6536714E6500654965FC
:1036F00042714B65006549652F71476500654471EE
:103700003B7147712F7100713B71000E0001000188
:10371000A86F000E0001A76F00010001A551A411C0
:10372000D8B401D001D04AD0206E010E00010001B2
:10373000A66F20500AD0000100010001D890A437E4
:10374000A53700010001A62B00D000010001A5AFA4
:1037500001D001D0F0D701D000D00001000100015C
:10376000D890A737A83700010001A451000100013B
:10377000A25D00010001A55100010001A359D8A0DC
:1037800001D001D010D000010001A45100010001BE
:10379000A25F00010001A55100010001A35B00012F
:1037A0000001A78100D0000100010001D890A533DD
:1037B000A43300010001A62FD0D700D0A7C0A2F0EB
:1037C000A8C0A3F01200000E00010001E46F010E7A
:1037D0000001E36FA10E205C0F0E2158D8A001D08C
:1037E00001D002D03FD03ED021502010D8A401D02B
:1037F00001D002D037D036D020C0A2F021C0A3F033
:103800000001A23BA33BF00EA317A2510F0BA31381
:10381000F00EA2170001A21FA31FA24BA32BFF0EA5
:103820000001A22500010001A66FFF0E0001A321E7
:103830000001A76FA6C0A4F000010001A75100017C
:103840000001A56FA5C0D7FFA4C0D6FFD58E01D0BB
:1038500000D000010001E451E311D8A401D001D04F
:10386000F8D7D59E120000EEDDF0150EEE6AE806E0
:10387000FDE100EE23F0150EEE6AE806FDE17E0E96
:10388000F66E340EF76E000EF86E02EE00F010EEDB
:10389000DCF00900F5CFEEFFE550E150FAE1360E1D
:1038A000F66E360EF76E000EF86E01EE00F010EEBA
:1038B000D4F00900F5CFEEFFE550E150FAE1A40E97
:1038C000F66E3E0EF76E000EF86E00EE60F010EE33
:1038D00042F00900F5CFEEFFE550E150FAE1A00E0D
:1038E000F66E400EF76E000EF86E00EE38F010EE39
:1038F00009F00900F5CFEEFFE550E150FAE10001D3
:1039000004EF13F0000E00010001D76F000E00015C
:10391000D66FD1EC1CF0010E216E2C0E206EE3EC64
:103920001BF001D000D000010001E451E311D8A444
:1039300001D001D0F8D721D020D0D6C020F0D7C0F8
:1039400021F06BEC1EF0DBEC09F000010001D64B1E
:10395000D72B060E00010001D65D000E0001D759DD
:10396000D8A001D001D009D0000E00010001D76F0E
:10397000000E0001D66F01D000D000010001E0511F
:10398000DF11D8A401D001D0D8D700D060EC20F04E
:10399000000E00010001E06F000E0001DF6F00D09B
:1039A000120066EC20F064EC20F0EEEC17F0000161
:1039B000D46F000E00010001A36F0001D45100017B
:1039C000D56F000E00010001A46F0001D551000168
:1039D000E3EC1FF00001D46F000E00010001A36FA3
:1039E0000001D4510001D56F000E00010001A46F49
:1039F0000001D5510001E3EC1FF00001D46F000E6F
:103A000000010001A36F0001D45140C0A4F00001E7
:103A1000C3EC1FF00001D46F010E00010001A36F81
:103A20000001D45140C0A4F00001C3EC1FF0000E0F
:103A3000346E000E336E68EC20F0120000010001BD
:103A4000A551A411D8B401D001D03BD0206E010EF5
:103A5000216E205008D0000100010001D890A43749
:103A6000A537212A00D000010001A5AF01D001D067
:103A7000F2D701D000D000010001A45100010001E3
:103A8000A25D00010001A55100010001A359D8A0C9
:103A900001D001D00DD000010001A45100010001AE
:103AA000A25F00010001A55100010001A35B00D04D
:103AB000000100010001D890A533A433212EDBD7EB
:103AC00000D0A2C0A2F0A3C0A3F01200FC0E0F0110
:103AD0000F013F170F010F013F813ACFAEF03BCFEF
:103AE000AFF03ACFB0F03BCFB1F0FC0E0F010F01B9
:103AF0003F170F010F013F813ACFA6F03BCFA7F050
:103B00003ACFA8F03BCFA9F000010001A851000175
:103B100020EEB0F0DF6201D001D0D8D700D020EE87
:103B200003F02050D9262150DA220001AEC0DFFF79
:103B300020EE02F02050D9262150DA220001B1C037
:103B4000DFFF20EE01F02050D9262150DA220001BB
:103B5000B0C0DFFF1200000120EE03F00001A85109
:103B6000D9260001A951DA22AAC020F0ABC021F069
:103B70003BEC19F0DF6E000120EE02F00001A851CD
:103B8000D9260001A951DA22ACC020F0ADC021F045
:103B90003BEC19F0DF6E000120EE01F00001A851AE
:103BA000D9260001A951DA22000EDF6E0001AE6FA6
:103BB000060E206E0001AE510001AF6F010E216EA6
:103BC0000001AF512CEC1EF0A8C020F0A9C021F0DC
:103BD000A5EC18F000D0120073EC1FF01AEC20F0E6
:103BE0000F010F013F95000120EE03F00001AA51E3
:103BF000D9260001AB51DA22ACC020F0ADC021F0D3
:103C00003BEC19F0DF6E000120EE02F00001AA513A
:103C1000D9260001AB51DA22AEC020F0AFC021F0AE
:103C20003BEC19F0DF6E000120EE01F00001AA511B
:103C3000D9260001AB51DA22000EDF6EAAC020F0B7
:103C4000ABC021F00001B06F000E226E0001B05138
:103C50009EEC15F000D01200000E0F0147BF010EC0
:103C600000010001A26F00010001A251D8B401D0EF
:103C700001D013D02150D8B401D001D005D00F010C
:103C80000F01479F0AD000D00F010F013FB901D0AB
:103C900001D0FAD702D001D000D020C022F02246B5
:103CA00022460F010F0147512218C30B22180F01A2
:103CB0000F01476F00010001A251D8B401D001D01B
:103CC00009D02150D8B401D001D004D00F010F0188
:103CD000478F00D0120059EC20F013D08D8030D0E7
:103CE0008D822ED08D842CD08D808D8229D08D8296
:103CF0008D8426D055EC20F023D059EC20F020D034
:103D00001FD020C0A2F021C0A3F00001A351000ADF
:103D1000D8B401D0F2D70001A251000AD8B4DED73E
:103D2000010AD8B4DDD7030AD8B4DCD7010AD8B465
:103D3000DBD7070AD8B4DBD7010AD8B4DBD7DDD785
:103D4000120023D0E7C020F0E8C021F02FD02ED001
:103D500025C020F026C021F029D028D02FC020F087
:103D600030C021F023D022D023C020F024C021F085
:103D70001DD01CD02DC020F02EC021F017D016D0A1
:103D80002068216813D012D011D02050650AD8B411
:103D9000EBD70D0AD8B4DCD7190AD8B4D3D7020AA6
:103DA000D8B4E8D7040AD8B4D9D7EAD712000A0E93
:103DB00000010001A25D000E0001A359D8A001D0AE
:103DC00001D002D024D023D0F00E8916800E8C169C
:103DD000000E00010001A225F66E0F0E0001A321C6
:103DE000F76EF86A000EF8220800F5508C120A0EE1
:103DF00000010001A425F66E0F0E0001A521F76E4B
:103E0000F86A000EF8220800F550801200D0120067
:103E1000E10E20C0D9FF21C0DAFFDF6201D001D05E
:103E200007D0000E216E010E206E16D015D014D0D2
:103E3000D20E20C0D9FF21C0DAFFDF6201D001D04D
:103E400004D02068216808D007D0000E216E000E33
:103E5000206E02D001D000D0120020C0AEFF00D0F2
:103E6000ADA201D001D0FCD721C0AEFF00D0ADA2E1
:103E700001D001D0FCD700D020C0A2F0F00E00018C
:103E8000A217B10E0001A25DD8B001D001D009D0B7
:103E900022C0AEFF00D0ADA201D001D0FCD701D02E
:103EA00000D012000000FFFF010000000100000030
:103EB0000000FFFFFFFF0000000001000000010004
:103EC000FFFF00000000FFFF0100000001000000F4
:103ED0000000FFFFFFFF00000000010000000100E4
:103EE000FFFF00000200CD86000E0F010F013F6FA3
:103EF000000E0F010F013E6F0F010F013FAF01D008
:103F000001D00DD00F010F013FBB01D001D003D074
:103F10001AEC20F000D00F010F013F9F00D00F01DD
:103F20000F013F9B120081A601D001D007D0000EE7
:103F3000216E000E206E14D013D012D081B601D0A5
:103F400001D007D0000E216E010E206E09D008D0DE
:103F500007D0FF0E216EFE0E206E02D001D000D0E1
:103F60001200949CAD9CAD98AD84AC8E7E967E8AFA
:103F70001F0EB06EAD8A949E8B9E0F010F01498774
:103F8000949400D0120000010001A351B009206EEA
:103F90000001A56F070E216E0001A551A4C022F0FB
:103FA0002DEC1FF0120000010001A3519009206EBA
:103FB000A4C021F00001A56F7F0E226E0001A55163
:103FC0002DEC1FF0120000010001A351B009206E7A
:103FD0000001A56F000E216E0001A551A4C022F0C2
:103FE0002DEC1FF012000F010F0149839386938877
:103FF000938A000E00010001DE6F000E0001DD6FEC
:1040000000D01200969096929694929A93929394DE
:10401000939C8D908D928D94899A8A848A821200C5
:10402000000E956E7F0E8C6EF00E9216F00E8916B5
:1040300000D01200F29C550EA76EAA0EA76E0F01BB
:104040000F013F8BF28C1200D59ED59CD59AD59846
:10405000D596D580D582D5841200000E00010001CE
:10406000DE6F000E0001DD6F00D01200000E0001B7
:104070000001DE6F010E0001DD6F12000F010F0164
:104080003F8F0F010F01478F12007F0E83128C9E0E
:10409000F00E80161200899A8A848A828A9C120005
:1040A00035000200370002007F008D808D828D84F4
:1040B00012008D908D928D941200F286F180120084
:1040C0008B9E1200F29612008B8E12008B941200BF
:0440D0008B841200CB
:020000040001F9
:08FFF800BEF7FCFFFFFBFFFB5D
:00000001FF
